{
  "contractName": "ERC721Metadata",
  "abi": [
    {
      "inputs": [
        {
          "internalType": "string",
          "name": "name_",
          "type": "string"
        },
        {
          "internalType": "string",
          "name": "symbol_",
          "type": "string"
        }
      ],
      "stateMutability": "nonpayable",
      "type": "constructor"
    },
    {
      "inputs": [
        {
          "internalType": "bytes4",
          "name": "interfaceID",
          "type": "bytes4"
        }
      ],
      "name": "supportsInterface",
      "outputs": [
        {
          "internalType": "bool",
          "name": "",
          "type": "bool"
        }
      ],
      "stateMutability": "view",
      "type": "function"
    },
    {
      "inputs": [],
      "name": "name",
      "outputs": [
        {
          "internalType": "string",
          "name": "",
          "type": "string"
        }
      ],
      "stateMutability": "view",
      "type": "function"
    },
    {
      "inputs": [],
      "name": "symbol",
      "outputs": [
        {
          "internalType": "string",
          "name": "",
          "type": "string"
        }
      ],
      "stateMutability": "view",
      "type": "function"
    },
    {
      "inputs": [
        {
          "internalType": "uint256",
          "name": "_tokenId",
          "type": "uint256"
        }
      ],
      "name": "tokenURI",
      "outputs": [
        {
          "internalType": "string",
          "name": "",
          "type": "string"
        }
      ],
      "stateMutability": "view",
      "type": "function"
    }
  ],
  "bytecode": "0x60806040523480156200001157600080fd5b5060405162000a2138038062000a21833981810160405281019062000037919062000311565b620000687f01ffc9a7a5cef8baa21ed3c5c0d7e23accb804b619e9333b597f47a0d84076e26200011760201b60201c565b816001908051906020019062000080929190620001ef565b50806002908051906020019062000099929190620001ef565b506200010f7fc87b56dda752230262935940d907f047a9f86bb5ee6aa33511fc86db33fea6cc7f95d89b41e2f5f391a79ec54e9d87c79d6e777c63e32c28da95b4e9e4a79250ec7f06fdde0383f15d582d1a74511486c9ddf862a882fb7904b3d9fe9b8b8e58a79618186200011760201b60201c565b50506200052a565b63ffffffff60e01b817bffffffffffffffffffffffffffffffffffffffffffffffffffffffff1916141562000183576040517f08c379a00000000000000000000000000000000000000000000000000000000081526004016200017a90620003c6565b60405180910390fd5b6001600080837bffffffffffffffffffffffffffffffffffffffffffffffffffffffff19167bffffffffffffffffffffffffffffffffffffffffffffffffffffffff1916815260200190815260200160002060006101000a81548160ff02191690831515021790555050565b828054620001fd9062000496565b90600052602060002090601f0160209004810192826200022157600085556200026d565b82601f106200023c57805160ff19168380011785556200026d565b828001600101855582156200026d579182015b828111156200026c5782518255916020019190600101906200024f565b5b5090506200027c919062000280565b5090565b5b808211156200029b57600081600090555060010162000281565b5090565b6000620002b6620002b0846200041c565b620003e8565b905082815260208101848484011115620002cf57600080fd5b620002dc84828562000460565b509392505050565b600082601f830112620002f657600080fd5b8151620003088482602086016200029f565b91505092915050565b600080604083850312156200032557600080fd5b600083015167ffffffffffffffff8111156200034057600080fd5b6200034e85828601620002e4565b925050602083015167ffffffffffffffff8111156200036c57600080fd5b6200037a85828601620002e4565b9150509250929050565b6000620003936019836200044f565b91507f496e76616c696420696e746572666163652072657175657374000000000000006000830152602082019050919050565b60006020820190508181036000830152620003e18162000384565b9050919050565b6000604051905081810181811067ffffffffffffffff82111715620004125762000411620004fb565b5b8060405250919050565b600067ffffffffffffffff8211156200043a5762000439620004fb565b5b601f19601f8301169050602081019050919050565b600082825260208201905092915050565b60005b838110156200048057808201518184015260208101905062000463565b8381111562000490576000848401525b50505050565b60006002820490506001821680620004af57607f821691505b60208210811415620004c657620004c5620004cc565b5b50919050565b7f4e487b7100000000000000000000000000000000000000000000000000000000600052602260045260246000fd5b7f4e487b7100000000000000000000000000000000000000000000000000000000600052604160045260246000fd5b6104e7806200053a6000396000f3fe608060405234801561001057600080fd5b506004361061004c5760003560e01c806301ffc9a71461005157806306fdde031461008157806395d89b411461009f578063c87b56dd146100bd575b600080fd5b61006b600480360381019061006691906102a9565b6100ed565b6040516100789190610343565b60405180910390f35b610089610154565b604051610096919061035e565b60405180910390f35b6100a76101e6565b6040516100b4919061035e565b60405180910390f35b6100d760048036038101906100d291906102d2565b610278565b6040516100e4919061035e565b60405180910390f35b6000806000837bffffffffffffffffffffffffffffffffffffffffffffffffffffffff19167bffffffffffffffffffffffffffffffffffffffffffffffffffffffff1916815260200190815260200160002060009054906101000a900460ff169050919050565b60606001805461016390610411565b80601f016020809104026020016040519081016040528092919081815260200182805461018f90610411565b80156101dc5780601f106101b1576101008083540402835291602001916101dc565b820191906000526020600020905b8154815290600101906020018083116101bf57829003601f168201915b5050505050905090565b6060600280546101f590610411565b80601f016020809104026020016040519081016040528092919081815260200182805461022190610411565b801561026e5780601f106102435761010080835404028352916020019161026e565b820191906000526020600020905b81548152906001019060200180831161025157829003601f168201915b5050505050905090565b6060919050565b60008135905061028e81610483565b92915050565b6000813590506102a38161049a565b92915050565b6000602082840312156102bb57600080fd5b60006102c98482850161027f565b91505092915050565b6000602082840312156102e457600080fd5b60006102f284828501610294565b91505092915050565b6103048161039c565b82525050565b600061031582610380565b61031f818561038b565b935061032f8185602086016103de565b61033881610472565b840191505092915050565b600060208201905061035860008301846102fb565b92915050565b60006020820190508181036000830152610378818461030a565b905092915050565b600081519050919050565b600082825260208201905092915050565b60008115159050919050565b60007fffffffff0000000000000000000000000000000000000000000000000000000082169050919050565b6000819050919050565b60005b838110156103fc5780820151818401526020810190506103e1565b8381111561040b576000848401525b50505050565b6000600282049050600182168061042957607f821691505b6020821081141561043d5761043c610443565b5b50919050565b7f4e487b7100000000000000000000000000000000000000000000000000000000600052602260045260246000fd5b6000601f19601f8301169050919050565b61048c816103a8565b811461049757600080fd5b50565b6104a3816103d4565b81146104ae57600080fd5b5056fea264697066735822122090dd944bebfd6307a97cfb03a9d49a11cfa8d3488b30726a066de851522a215a64736f6c63430008000033",
  "immutableReferences": {},
  "source": "// SPDX-License-Identifier: MIT\npragma solidity ^0.8.0;\nimport \"../interfaces/IERC721Metadata.sol\";\nimport \"./ERC165.sol\";\n\ncontract ERC721Metadata is IERC721Metadata, ERC165 {\n    string private _name;\n    string private _symbol;\n\n    constructor(string memory name_, string memory symbol_) {\n        _name = name_;\n        _symbol = symbol_;\n        _registerInterface(\n            bytes4(\n                keccak256(\"name()\") ^\n                    keccak256(\"symbol()\") ^\n                    keccak256(\"tokenURI(uint256)\")\n            )\n        );\n    }\n\n    function name() external view override returns (string memory) {\n        return _name;\n    }\n\n    function symbol() external view override returns (string memory) {\n        return _symbol;\n    }\n\n    function tokenURI(\n        uint256 _tokenId\n    ) external view override returns (string memory) {}\n}\n",
  "sourcePath": "/Users/mwibutsafloribert/Desktop/Learning/Web3/U-NFTMarketplace/src/contracts/ERC721Metadata.sol",
  "compiler": {
    "name": "solc",
    "version": "0.8.0+commit.c7dfd78e.Emscripten.clang"
  },
  "schemaVersion": "3.4.16",
  "updatedAt": "2023-11-09T08:06:48.606Z",
  "devdoc": {
    "kind": "dev",
    "methods": {
      "supportsInterface(bytes4)": {
        "details": "Interface identification is specified in ERC-165. This function  uses less than 30,000 gas.",
        "params": {
          "interfaceID": "The interface identifier, as specified in ERC-165"
        },
        "returns": {
          "_0": "`true` if the contract implements `interfaceID` and  `interfaceID` is not 0xffffffff, `false` otherwise"
        }
      }
    },
    "version": 1
  },
  "userdoc": {
    "kind": "user",
    "methods": {
      "supportsInterface(bytes4)": {
        "notice": "Query if a contract implements an interface"
      }
    },
    "version": 1
  }
}