{
  "contractName": "ERC721",
  "abi": [
    {
      "anonymous": false,
      "inputs": [
        {
          "indexed": true,
          "internalType": "address",
          "name": "from",
          "type": "address"
        },
        {
          "indexed": true,
          "internalType": "address",
          "name": "to",
          "type": "address"
        },
        {
          "indexed": true,
          "internalType": "uint256",
          "name": "tokenId",
          "type": "uint256"
        }
      ],
      "name": "Transfer",
      "type": "event"
    },
    {
      "inputs": [
        {
          "internalType": "address",
          "name": "owner",
          "type": "address"
        }
      ],
      "name": "balanceOf",
      "outputs": [
        {
          "internalType": "uint256",
          "name": "",
          "type": "uint256"
        }
      ],
      "stateMutability": "view",
      "type": "function"
    },
    {
      "inputs": [
        {
          "internalType": "uint256",
          "name": "_tokenId",
          "type": "uint256"
        }
      ],
      "name": "ownerOf",
      "outputs": [
        {
          "internalType": "address",
          "name": "",
          "type": "address"
        }
      ],
      "stateMutability": "view",
      "type": "function"
    },
    {
      "inputs": [
        {
          "internalType": "address",
          "name": "_from",
          "type": "address"
        },
        {
          "internalType": "address",
          "name": "_to",
          "type": "address"
        },
        {
          "internalType": "uint256",
          "name": "_tokenId",
          "type": "uint256"
        }
      ],
      "name": "transferFrom",
      "outputs": [],
      "stateMutability": "payable",
      "type": "function"
    }
  ],
  "bytecode": "0x608060405234801561001057600080fd5b5061089e806100206000396000f3fe6080604052600436106100345760003560e01c806323b872dd146100395780636352211e1461005557806370a0823114610092575b600080fd5b610053600480360381019061004e91906104c2565b6100cf565b005b34801561006157600080fd5b5061007c60048036038101906100779190610511565b6100df565b604051610089919061067e565b60405180910390f35b34801561009e57600080fd5b506100b960048036038101906100b49190610499565b61011b565b6040516100c69190610719565b60405180910390f35b6100da8383836101d3565b505050565b600080600083815260200190815260200160002060009054906101000a900473ffffffffffffffffffffffffffffffffffffffff169050919050565b60008073ffffffffffffffffffffffffffffffffffffffff168273ffffffffffffffffffffffffffffffffffffffff16141561018c576040517f08c379a000000000000000000000000000000000000000000000000000000000815260040161018390610699565b60405180910390fd5b600160008373ffffffffffffffffffffffffffffffffffffffff1673ffffffffffffffffffffffffffffffffffffffff168152602001908152602001600020549050919050565b6101dc83610436565b61021b576040517f08c379a0000000000000000000000000000000000000000000000000000000008152600401610212906106f9565b60405180910390fd5b61022482610436565b610263576040517f08c379a000000000000000000000000000000000000000000000000000000000815260040161025a906106b9565b60405180910390fd5b8273ffffffffffffffffffffffffffffffffffffffff16610283826100df565b73ffffffffffffffffffffffffffffffffffffffff16146102d9576040517f08c379a00000000000000000000000000000000000000000000000000000000081526004016102d0906106d9565b60405180910390fd5b8160008083815260200190815260200160002060006101000a81548173ffffffffffffffffffffffffffffffffffffffff021916908373ffffffffffffffffffffffffffffffffffffffff16021790555060018060008573ffffffffffffffffffffffffffffffffffffffff1673ffffffffffffffffffffffffffffffffffffffff1681526020019081526020016000206000828254610379919061079b565b9250508190555060018060008473ffffffffffffffffffffffffffffffffffffffff1673ffffffffffffffffffffffffffffffffffffffff16815260200190815260200160002060008282546103cf9190610745565b92505081905550808273ffffffffffffffffffffffffffffffffffffffff168473ffffffffffffffffffffffffffffffffffffffff167fddf252ad1be2c89b69c2b068fc378daa952ba7f163c4a11628f55a4df523b3ef60405160405180910390a4505050565b60008073ffffffffffffffffffffffffffffffffffffffff168273ffffffffffffffffffffffffffffffffffffffff1614159050919050565b60008135905061047e8161083a565b92915050565b60008135905061049381610851565b92915050565b6000602082840312156104ab57600080fd5b60006104b98482850161046f565b91505092915050565b6000806000606084860312156104d757600080fd5b60006104e58682870161046f565b93505060206104f68682870161046f565b925050604061050786828701610484565b9150509250925092565b60006020828403121561052357600080fd5b600061053184828501610484565b91505092915050565b610543816107cf565b82525050565b6000610556602383610734565b91507f4f776e657220717565727920666f72206e6f6e2d6578697374656e7420746f6b60008301527f656e2e00000000000000000000000000000000000000000000000000000000006020830152604082019050919050565b60006105bc601b83610734565b91507f5265636569766572206164647265737320697320696e76616c696400000000006000830152602082019050919050565b60006105fc601883610734565b91507f596f7520646f6e2774206f776e207468697320746f6b656e00000000000000006000830152602082019050919050565b600061063c601983610734565b91507f53656e646572206164647265737320697320696e76616c6964000000000000006000830152602082019050919050565b61067881610801565b82525050565b6000602082019050610693600083018461053a565b92915050565b600060208201905081810360008301526106b281610549565b9050919050565b600060208201905081810360008301526106d2816105af565b9050919050565b600060208201905081810360008301526106f2816105ef565b9050919050565b600060208201905081810360008301526107128161062f565b9050919050565b600060208201905061072e600083018461066f565b92915050565b600082825260208201905092915050565b600061075082610801565b915061075b83610801565b9250827fffffffffffffffffffffffffffffffffffffffffffffffffffffffffffffffff038211156107905761078f61080b565b5b828201905092915050565b60006107a682610801565b91506107b183610801565b9250828210156107c4576107c361080b565b5b828203905092915050565b60006107da826107e1565b9050919050565b600073ffffffffffffffffffffffffffffffffffffffff82169050919050565b6000819050919050565b7f4e487b7100000000000000000000000000000000000000000000000000000000600052601160045260246000fd5b610843816107cf565b811461084e57600080fd5b50565b61085a81610801565b811461086557600080fd5b5056fea2646970667358221220261974cd089717d2e2b9e4763740d206be37c5ebd6b3998d0a10d9bb597371c064736f6c63430008000033",
  "immutableReferences": {},
  "source": "// SPDX-License-Identifier: MIT\npragma solidity ^0.8.0;\n\ncontract ERC721 {\n    event Transfer(\n        address indexed from,\n        address indexed to,\n        uint256 indexed tokenId\n    );\n\n    mapping(uint256 => address) private _tokenOwner;\n    mapping(address => uint256) _OwnedTokensCount;\n\n    function balanceOf(address owner) public view returns (uint256) {\n        require(owner != address(0), \"Owner query for non-existent token.\");\n        return _OwnedTokensCount[owner];\n    }\n\n    function ownerOf(uint256 _tokenId) public view returns (address) {\n        return _tokenOwner[_tokenId];\n    }\n\n    function _exists(uint256 tokenId) internal view returns (bool) {\n        address owner = _tokenOwner[tokenId];\n        return isValid(owner);\n    }\n\n    function _mint(\n        address to,\n        uint256 tokenId\n    ) internal virtual isValidAddress(to) {\n        require(!_exists(tokenId), \"ERC721: token already minted\");\n        _tokenOwner[tokenId] = to;\n        _OwnedTokensCount[to] += 1;\n        emit Transfer(address(this), to, tokenId);\n    }\n\n    function isValid(address addr) internal pure returns (bool) {\n        return addr != address(0);\n    }\n\n    function _transferFrom(\n        address _from,\n        address _to,\n        uint256 _tokenId\n    ) internal {\n        require(isValid(_from), \"Sender address is invalid\");\n        require(isValid(_to), \"Receiver address is invalid\");\n        require(ownerOf(_tokenId) == _from, \"You don't own this token\");\n\n        _tokenOwner[_tokenId] = _to;\n        _OwnedTokensCount[_from] -= 1;\n        _OwnedTokensCount[_to] += 1;\n\n        emit Transfer(_from, _to, _tokenId);\n    }\n\n    function transferFrom(\n        address _from,\n        address _to,\n        uint256 _tokenId\n    ) external payable {\n        _transferFrom(_from, _to, _tokenId);\n    }\n\n    modifier isValidAddress(address to) {\n        require(isValid(to), \"Can not mint to zero address\");\n        _;\n    }\n}\n",
  "sourcePath": "/Users/mwibutsafloribert/Desktop/Learning/Web3/U-NFTMarketplace/src/contracts/ERC721.sol",
  "compiler": {
    "name": "solc",
    "version": "0.8.0+commit.c7dfd78e.Emscripten.clang"
  },
  "schemaVersion": "3.4.16",
  "updatedAt": "2023-10-17T12:00:25.955Z",
  "devdoc": {
    "kind": "dev",
    "methods": {},
    "version": 1
  },
  "userdoc": {
    "kind": "user",
    "methods": {},
    "version": 1
  }
}