{
  "contractName": "ERC721Enumerable",
  "abi": [
    {
      "anonymous": false,
      "inputs": [
        {
          "indexed": true,
          "internalType": "address",
          "name": "from",
          "type": "address"
        },
        {
          "indexed": true,
          "internalType": "address",
          "name": "to",
          "type": "address"
        },
        {
          "indexed": true,
          "internalType": "uint256",
          "name": "tokenId",
          "type": "uint256"
        }
      ],
      "name": "Transfer",
      "type": "event"
    },
    {
      "inputs": [
        {
          "internalType": "address",
          "name": "owner",
          "type": "address"
        }
      ],
      "name": "balanceOf",
      "outputs": [
        {
          "internalType": "uint256",
          "name": "",
          "type": "uint256"
        }
      ],
      "stateMutability": "view",
      "type": "function"
    },
    {
      "inputs": [
        {
          "internalType": "uint256",
          "name": "_tokenId",
          "type": "uint256"
        }
      ],
      "name": "ownerOf",
      "outputs": [
        {
          "internalType": "address",
          "name": "",
          "type": "address"
        }
      ],
      "stateMutability": "view",
      "type": "function"
    },
    {
      "inputs": [
        {
          "internalType": "address",
          "name": "_from",
          "type": "address"
        },
        {
          "internalType": "address",
          "name": "_to",
          "type": "address"
        },
        {
          "internalType": "uint256",
          "name": "_tokenId",
          "type": "uint256"
        }
      ],
      "name": "transferFrom",
      "outputs": [],
      "stateMutability": "payable",
      "type": "function"
    },
    {
      "inputs": [
        {
          "internalType": "uint256",
          "name": "index",
          "type": "uint256"
        }
      ],
      "name": "tokenByIndex",
      "outputs": [
        {
          "internalType": "uint256",
          "name": "",
          "type": "uint256"
        }
      ],
      "stateMutability": "view",
      "type": "function"
    },
    {
      "inputs": [
        {
          "internalType": "address",
          "name": "_owner",
          "type": "address"
        },
        {
          "internalType": "uint256",
          "name": "_index",
          "type": "uint256"
        }
      ],
      "name": "tokenOfOwnerByIndex",
      "outputs": [
        {
          "internalType": "uint256",
          "name": "",
          "type": "uint256"
        }
      ],
      "stateMutability": "view",
      "type": "function"
    },
    {
      "inputs": [],
      "name": "totalSupply",
      "outputs": [
        {
          "internalType": "uint256",
          "name": "",
          "type": "uint256"
        }
      ],
      "stateMutability": "view",
      "type": "function"
    }
  ],
  "bytecode": "0x608060405234801561001057600080fd5b50610bda806100206000396000f3fe6080604052600436106100555760003560e01c806318160ddd1461005a57806323b872dd146100855780632f745c59146100a15780634f6ccce7146100de5780636352211e1461011b57806370a0823114610158575b600080fd5b34801561006657600080fd5b5061006f610195565b60405161007c9190610a55565b60405180910390f35b61009f600480360381019061009a9190610702565b6101a2565b005b3480156100ad57600080fd5b506100c860048036038101906100c39190610751565b6101b2565b6040516100d59190610a55565b60405180910390f35b3480156100ea57600080fd5b506101056004803603810190610100919061078d565b610288565b6040516101129190610a55565b60405180910390f35b34801561012757600080fd5b50610142600480360381019061013d919061078d565b61031f565b60405161014f919061097a565b60405180910390f35b34801561016457600080fd5b5061017f600480360381019061017a91906106d9565b61035b565b60405161018c9190610a55565b60405180910390f35b6000600280549050905090565b6101ad838383610413565b505050565b60006101bd8361035b565b82106101fe576040517f08c379a00000000000000000000000000000000000000000000000000000000081526004016101f590610995565b60405180910390fd5b600460008473ffffffffffffffffffffffffffffffffffffffff1673ffffffffffffffffffffffffffffffffffffffff1681526020019081526020016000208281548110610275577f4e487b7100000000000000000000000000000000000000000000000000000000600052603260045260246000fd5b9060005260206000200154905092915050565b6000610292610195565b82106102d3576040517f08c379a00000000000000000000000000000000000000000000000000000000081526004016102ca90610a15565b60405180910390fd5b6002828154811061030d577f4e487b7100000000000000000000000000000000000000000000000000000000600052603260045260246000fd5b90600052602060002001549050919050565b600080600083815260200190815260200160002060009054906101000a900473ffffffffffffffffffffffffffffffffffffffff169050919050565b60008073ffffffffffffffffffffffffffffffffffffffff168273ffffffffffffffffffffffffffffffffffffffff1614156103cc576040517f08c379a00000000000000000000000000000000000000000000000000000000081526004016103c3906109b5565b60405180910390fd5b600160008373ffffffffffffffffffffffffffffffffffffffff1673ffffffffffffffffffffffffffffffffffffffff168152602001908152602001600020549050919050565b61041c83610676565b61045b576040517f08c379a000000000000000000000000000000000000000000000000000000000815260040161045290610a35565b60405180910390fd5b61046482610676565b6104a3576040517f08c379a000000000000000000000000000000000000000000000000000000000815260040161049a906109d5565b60405180910390fd5b8273ffffffffffffffffffffffffffffffffffffffff166104c38261031f565b73ffffffffffffffffffffffffffffffffffffffff1614610519576040517f08c379a0000000000000000000000000000000000000000000000000000000008152600401610510906109f5565b60405180910390fd5b8160008083815260200190815260200160002060006101000a81548173ffffffffffffffffffffffffffffffffffffffff021916908373ffffffffffffffffffffffffffffffffffffffff16021790555060018060008573ffffffffffffffffffffffffffffffffffffffff1673ffffffffffffffffffffffffffffffffffffffff16815260200190815260200160002060008282546105b99190610ad7565b9250508190555060018060008473ffffffffffffffffffffffffffffffffffffffff1673ffffffffffffffffffffffffffffffffffffffff168152602001908152602001600020600082825461060f9190610a81565b92505081905550808273ffffffffffffffffffffffffffffffffffffffff168473ffffffffffffffffffffffffffffffffffffffff167fddf252ad1be2c89b69c2b068fc378daa952ba7f163c4a11628f55a4df523b3ef60405160405180910390a4505050565b60008073ffffffffffffffffffffffffffffffffffffffff168273ffffffffffffffffffffffffffffffffffffffff1614159050919050565b6000813590506106be81610b76565b92915050565b6000813590506106d381610b8d565b92915050565b6000602082840312156106eb57600080fd5b60006106f9848285016106af565b91505092915050565b60008060006060848603121561071757600080fd5b6000610725868287016106af565b9350506020610736868287016106af565b9250506040610747868287016106c4565b9150509250925092565b6000806040838503121561076457600080fd5b6000610772858286016106af565b9250506020610783858286016106c4565b9150509250929050565b60006020828403121561079f57600080fd5b60006107ad848285016106c4565b91505092915050565b6107bf81610b0b565b82525050565b60006107d2601883610a70565b91507f4f776e657220696e646578206f7574206f662072616e676500000000000000006000830152602082019050919050565b6000610812602383610a70565b91507f4f776e657220717565727920666f72206e6f6e2d6578697374656e7420746f6b60008301527f656e2e00000000000000000000000000000000000000000000000000000000006020830152604082019050919050565b6000610878601b83610a70565b91507f5265636569766572206164647265737320697320696e76616c696400000000006000830152602082019050919050565b60006108b8601883610a70565b91507f596f7520646f6e2774206f776e207468697320746f6b656e00000000000000006000830152602082019050919050565b60006108f8601983610a70565b91507f476c6f62616c20696e646578206f7574206f662072616e6765000000000000006000830152602082019050919050565b6000610938601983610a70565b91507f53656e646572206164647265737320697320696e76616c6964000000000000006000830152602082019050919050565b61097481610b3d565b82525050565b600060208201905061098f60008301846107b6565b92915050565b600060208201905081810360008301526109ae816107c5565b9050919050565b600060208201905081810360008301526109ce81610805565b9050919050565b600060208201905081810360008301526109ee8161086b565b9050919050565b60006020820190508181036000830152610a0e816108ab565b9050919050565b60006020820190508181036000830152610a2e816108eb565b9050919050565b60006020820190508181036000830152610a4e8161092b565b9050919050565b6000602082019050610a6a600083018461096b565b92915050565b600082825260208201905092915050565b6000610a8c82610b3d565b9150610a9783610b3d565b9250827fffffffffffffffffffffffffffffffffffffffffffffffffffffffffffffffff03821115610acc57610acb610b47565b5b828201905092915050565b6000610ae282610b3d565b9150610aed83610b3d565b925082821015610b0057610aff610b47565b5b828203905092915050565b6000610b1682610b1d565b9050919050565b600073ffffffffffffffffffffffffffffffffffffffff82169050919050565b6000819050919050565b7f4e487b7100000000000000000000000000000000000000000000000000000000600052601160045260246000fd5b610b7f81610b0b565b8114610b8a57600080fd5b50565b610b9681610b3d565b8114610ba157600080fd5b5056fea2646970667358221220fc2a38d417bf4c809fd84365551b4fbf0d3371e448b6c646a9faabe70d1be24964736f6c63430008000033",
  "immutableReferences": {},
  "source": "// SPDX-License-Identifier: MIT\npragma solidity ^0.8.0;\nimport \"./ERC721.sol\";\n\ncontract ERC721Enumerable is ERC721 {\n    uint256[] private _allTokens;\n    mapping(uint256 => uint256) private _allTokensIndex;\n    mapping(address => uint256[]) private _ownedTokens;\n    mapping(uint256 => uint256) private _ownedTokensIndex;\n\n    function _mint(address to, uint256 tokenId) internal override(ERC721) {\n        super._mint(to, tokenId);\n        _addTokensToAllTokenEnumeration(tokenId);\n        _addTokensToOwnerEnumeration(to, tokenId);\n    }\n\n    function _addTokensToAllTokenEnumeration(uint256 tokenId) private {\n        _allTokensIndex[tokenId] = _allTokens.length;\n        _allTokens.push(tokenId);\n    }\n\n    function _addTokensToOwnerEnumeration(address to, uint256 tokenId) private {\n        _ownedTokensIndex[tokenId] = _ownedTokens[to].length;\n        _ownedTokens[to].push(tokenId);\n    }\n\n    function tokenByIndex(uint256 index) public view returns (uint256) {\n        require(index < totalSupply(), \"Global index out of range\");\n        return _allTokens[index];\n    }\n\n    function tokenOfOwnerByIndex(\n        address _owner,\n        uint256 _index\n    ) public view returns (uint256) {\n        require(_index < balanceOf(_owner), \"Owner index out of range\");\n\n        return _ownedTokens[_owner][_index];\n    }\n\n    function totalSupply() public view returns (uint256) {\n        return _allTokens.length;\n    }\n}\n",
  "sourcePath": "/Users/mwibutsafloribert/Desktop/Learning/Web3/U-NFTMarketplace/src/contracts/ERC721Enumerable.sol",
  "compiler": {
    "name": "solc",
    "version": "0.8.0+commit.c7dfd78e.Emscripten.clang"
  },
  "schemaVersion": "3.4.16",
  "updatedAt": "2023-10-17T12:00:25.965Z",
  "devdoc": {
    "kind": "dev",
    "methods": {},
    "version": 1
  },
  "userdoc": {
    "kind": "user",
    "methods": {},
    "version": 1
  }
}