{
  "contractName": "ERC721Connector",
  "abi": [
    {
      "inputs": [
        {
          "internalType": "string",
          "name": "name_",
          "type": "string"
        },
        {
          "internalType": "string",
          "name": "symbol_",
          "type": "string"
        }
      ],
      "stateMutability": "nonpayable",
      "type": "constructor"
    },
    {
      "anonymous": false,
      "inputs": [
        {
          "indexed": true,
          "internalType": "address",
          "name": "from",
          "type": "address"
        },
        {
          "indexed": true,
          "internalType": "address",
          "name": "to",
          "type": "address"
        },
        {
          "indexed": true,
          "internalType": "uint256",
          "name": "tokenId",
          "type": "uint256"
        }
      ],
      "name": "Transfer",
      "type": "event"
    },
    {
      "inputs": [
        {
          "internalType": "address",
          "name": "owner",
          "type": "address"
        }
      ],
      "name": "balanceOf",
      "outputs": [
        {
          "internalType": "uint256",
          "name": "",
          "type": "uint256"
        }
      ],
      "stateMutability": "view",
      "type": "function"
    },
    {
      "inputs": [],
      "name": "name",
      "outputs": [
        {
          "internalType": "string",
          "name": "",
          "type": "string"
        }
      ],
      "stateMutability": "view",
      "type": "function"
    },
    {
      "inputs": [
        {
          "internalType": "uint256",
          "name": "_tokenId",
          "type": "uint256"
        }
      ],
      "name": "ownerOf",
      "outputs": [
        {
          "internalType": "address",
          "name": "",
          "type": "address"
        }
      ],
      "stateMutability": "view",
      "type": "function"
    },
    {
      "inputs": [],
      "name": "symbol",
      "outputs": [
        {
          "internalType": "string",
          "name": "",
          "type": "string"
        }
      ],
      "stateMutability": "view",
      "type": "function"
    },
    {
      "inputs": [
        {
          "internalType": "uint256",
          "name": "index",
          "type": "uint256"
        }
      ],
      "name": "tokenByIndex",
      "outputs": [
        {
          "internalType": "uint256",
          "name": "",
          "type": "uint256"
        }
      ],
      "stateMutability": "view",
      "type": "function"
    },
    {
      "inputs": [
        {
          "internalType": "address",
          "name": "_owner",
          "type": "address"
        },
        {
          "internalType": "uint256",
          "name": "_index",
          "type": "uint256"
        }
      ],
      "name": "tokenOfOwnerByIndex",
      "outputs": [
        {
          "internalType": "uint256",
          "name": "",
          "type": "uint256"
        }
      ],
      "stateMutability": "view",
      "type": "function"
    },
    {
      "inputs": [],
      "name": "totalSupply",
      "outputs": [
        {
          "internalType": "uint256",
          "name": "",
          "type": "uint256"
        }
      ],
      "stateMutability": "view",
      "type": "function"
    },
    {
      "inputs": [
        {
          "internalType": "address",
          "name": "_from",
          "type": "address"
        },
        {
          "internalType": "address",
          "name": "_to",
          "type": "address"
        },
        {
          "internalType": "uint256",
          "name": "_tokenId",
          "type": "uint256"
        }
      ],
      "name": "transferFrom",
      "outputs": [],
      "stateMutability": "payable",
      "type": "function"
    }
  ],
  "bytecode": "0x60806040523480156200001157600080fd5b50604051620011d4380380620011d4833981810160405281019062000037919062000197565b818181600090805190602001906200005192919062000075565b5080600190805190602001906200006a92919062000075565b50505050506200033b565b8280546200008390620002a7565b90600052602060002090601f016020900481019282620000a75760008555620000f3565b82601f10620000c257805160ff1916838001178555620000f3565b82800160010185558215620000f3579182015b82811115620000f2578251825591602001919060010190620000d5565b5b50905062000102919062000106565b5090565b5b808211156200012157600081600090555060010162000107565b5090565b60006200013c62000136846200023e565b6200020a565b9050828152602081018484840111156200015557600080fd5b6200016284828562000271565b509392505050565b600082601f8301126200017c57600080fd5b81516200018e84826020860162000125565b91505092915050565b60008060408385031215620001ab57600080fd5b600083015167ffffffffffffffff811115620001c657600080fd5b620001d4858286016200016a565b925050602083015167ffffffffffffffff811115620001f257600080fd5b62000200858286016200016a565b9150509250929050565b6000604051905081810181811067ffffffffffffffff821117156200023457620002336200030c565b5b8060405250919050565b600067ffffffffffffffff8211156200025c576200025b6200030c565b5b601f19601f8301169050602081019050919050565b60005b838110156200029157808201518184015260208101905062000274565b83811115620002a1576000848401525b50505050565b60006002820490506001821680620002c057607f821691505b60208210811415620002d757620002d6620002dd565b5b50919050565b7f4e487b7100000000000000000000000000000000000000000000000000000000600052602260045260246000fd5b7f4e487b7100000000000000000000000000000000000000000000000000000000600052604160045260246000fd5b610e89806200034b6000396000f3fe60806040526004361061007b5760003560e01c80634f6ccce71161004e5780634f6ccce71461012f5780636352211e1461016c57806370a08231146101a957806395d89b41146101e65761007b565b806306fdde031461008057806318160ddd146100ab57806323b872dd146100d65780632f745c59146100f2575b600080fd5b34801561008c57600080fd5b50610095610211565b6040516100a29190610b72565b60405180910390f35b3480156100b757600080fd5b506100c06102a3565b6040516100cd9190610c54565b60405180910390f35b6100f060048036038101906100eb91906108a6565b6102b0565b005b3480156100fe57600080fd5b50610119600480360381019061011491906108f5565b6102c0565b6040516101269190610c54565b60405180910390f35b34801561013b57600080fd5b5061015660048036038101906101519190610931565b610396565b6040516101639190610c54565b60405180910390f35b34801561017857600080fd5b50610193600480360381019061018e9190610931565b61042d565b6040516101a09190610b57565b60405180910390f35b3480156101b557600080fd5b506101d060048036038101906101cb919061087d565b61046a565b6040516101dd9190610c54565b60405180910390f35b3480156101f257600080fd5b506101fb610522565b6040516102089190610b72565b60405180910390f35b60606000805461022090610d84565b80601f016020809104026020016040519081016040528092919081815260200182805461024c90610d84565b80156102995780601f1061026e57610100808354040283529160200191610299565b820191906000526020600020905b81548152906001019060200180831161027c57829003601f168201915b5050505050905090565b6000600480549050905090565b6102bb8383836105b4565b505050565b60006102cb8361046a565b821061030c576040517f08c379a000000000000000000000000000000000000000000000000000000000815260040161030390610b94565b60405180910390fd5b600660008473ffffffffffffffffffffffffffffffffffffffff1673ffffffffffffffffffffffffffffffffffffffff1681526020019081526020016000208281548110610383577f4e487b7100000000000000000000000000000000000000000000000000000000600052603260045260246000fd5b9060005260206000200154905092915050565b60006103a06102a3565b82106103e1576040517f08c379a00000000000000000000000000000000000000000000000000000000081526004016103d890610c14565b60405180910390fd5b6004828154811061041b577f4e487b7100000000000000000000000000000000000000000000000000000000600052603260045260246000fd5b90600052602060002001549050919050565b60006002600083815260200190815260200160002060009054906101000a900473ffffffffffffffffffffffffffffffffffffffff169050919050565b60008073ffffffffffffffffffffffffffffffffffffffff168273ffffffffffffffffffffffffffffffffffffffff1614156104db576040517f08c379a00000000000000000000000000000000000000000000000000000000081526004016104d290610bb4565b60405180910390fd5b600360008373ffffffffffffffffffffffffffffffffffffffff1673ffffffffffffffffffffffffffffffffffffffff168152602001908152602001600020549050919050565b60606001805461053190610d84565b80601f016020809104026020016040519081016040528092919081815260200182805461055d90610d84565b80156105aa5780601f1061057f576101008083540402835291602001916105aa565b820191906000526020600020905b81548152906001019060200180831161058d57829003601f168201915b5050505050905090565b6105bd8361081a565b6105fc576040517f08c379a00000000000000000000000000000000000000000000000000000000081526004016105f390610c34565b60405180910390fd5b6106058261081a565b610644576040517f08c379a000000000000000000000000000000000000000000000000000000000815260040161063b90610bd4565b60405180910390fd5b8273ffffffffffffffffffffffffffffffffffffffff166106648261042d565b73ffffffffffffffffffffffffffffffffffffffff16146106ba576040517f08c379a00000000000000000000000000000000000000000000000000000000081526004016106b190610bf4565b60405180910390fd5b816002600083815260200190815260200160002060006101000a81548173ffffffffffffffffffffffffffffffffffffffff021916908373ffffffffffffffffffffffffffffffffffffffff1602179055506001600360008573ffffffffffffffffffffffffffffffffffffffff1673ffffffffffffffffffffffffffffffffffffffff168152602001908152602001600020600082825461075c9190610ce1565b925050819055506001600360008473ffffffffffffffffffffffffffffffffffffffff1673ffffffffffffffffffffffffffffffffffffffff16815260200190815260200160002060008282546107b39190610c8b565b92505081905550808273ffffffffffffffffffffffffffffffffffffffff168473ffffffffffffffffffffffffffffffffffffffff167fddf252ad1be2c89b69c2b068fc378daa952ba7f163c4a11628f55a4df523b3ef60405160405180910390a4505050565b60008073ffffffffffffffffffffffffffffffffffffffff168273ffffffffffffffffffffffffffffffffffffffff1614159050919050565b60008135905061086281610e25565b92915050565b60008135905061087781610e3c565b92915050565b60006020828403121561088f57600080fd5b600061089d84828501610853565b91505092915050565b6000806000606084860312156108bb57600080fd5b60006108c986828701610853565b93505060206108da86828701610853565b92505060406108eb86828701610868565b9150509250925092565b6000806040838503121561090857600080fd5b600061091685828601610853565b925050602061092785828601610868565b9150509250929050565b60006020828403121561094357600080fd5b600061095184828501610868565b91505092915050565b61096381610d15565b82525050565b600061097482610c6f565b61097e8185610c7a565b935061098e818560208601610d51565b61099781610e14565b840191505092915050565b60006109af601883610c7a565b91507f4f776e657220696e646578206f7574206f662072616e676500000000000000006000830152602082019050919050565b60006109ef602383610c7a565b91507f4f776e657220717565727920666f72206e6f6e2d6578697374656e7420746f6b60008301527f656e2e00000000000000000000000000000000000000000000000000000000006020830152604082019050919050565b6000610a55601b83610c7a565b91507f5265636569766572206164647265737320697320696e76616c696400000000006000830152602082019050919050565b6000610a95601883610c7a565b91507f596f7520646f6e2774206f776e207468697320746f6b656e00000000000000006000830152602082019050919050565b6000610ad5601983610c7a565b91507f476c6f62616c20696e646578206f7574206f662072616e6765000000000000006000830152602082019050919050565b6000610b15601983610c7a565b91507f53656e646572206164647265737320697320696e76616c6964000000000000006000830152602082019050919050565b610b5181610d47565b82525050565b6000602082019050610b6c600083018461095a565b92915050565b60006020820190508181036000830152610b8c8184610969565b905092915050565b60006020820190508181036000830152610bad816109a2565b9050919050565b60006020820190508181036000830152610bcd816109e2565b9050919050565b60006020820190508181036000830152610bed81610a48565b9050919050565b60006020820190508181036000830152610c0d81610a88565b9050919050565b60006020820190508181036000830152610c2d81610ac8565b9050919050565b60006020820190508181036000830152610c4d81610b08565b9050919050565b6000602082019050610c696000830184610b48565b92915050565b600081519050919050565b600082825260208201905092915050565b6000610c9682610d47565b9150610ca183610d47565b9250827fffffffffffffffffffffffffffffffffffffffffffffffffffffffffffffffff03821115610cd657610cd5610db6565b5b828201905092915050565b6000610cec82610d47565b9150610cf783610d47565b925082821015610d0a57610d09610db6565b5b828203905092915050565b6000610d2082610d27565b9050919050565b600073ffffffffffffffffffffffffffffffffffffffff82169050919050565b6000819050919050565b60005b83811015610d6f578082015181840152602081019050610d54565b83811115610d7e576000848401525b50505050565b60006002820490506001821680610d9c57607f821691505b60208210811415610db057610daf610de5565b5b50919050565b7f4e487b7100000000000000000000000000000000000000000000000000000000600052601160045260246000fd5b7f4e487b7100000000000000000000000000000000000000000000000000000000600052602260045260246000fd5b6000601f19601f8301169050919050565b610e2e81610d15565b8114610e3957600080fd5b50565b610e4581610d47565b8114610e5057600080fd5b5056fea2646970667358221220ce2146884b0497fc4c7ce05ee835f6f50292d45de760f9f48420c1455d82661464736f6c63430008000033",
  "immutableReferences": {},
  "source": "// SPDX-License-Identifier: MIT\npragma solidity ^0.8.0;\nimport \"./ERC721Metadata.sol\";\nimport \"./ERC721Enumerable.sol\";\n\ncontract ERC721Connector is ERC721Metadata, ERC721Enumerable {\n    constructor(\n        string memory name_,\n        string memory symbol_\n    ) ERC721Metadata(name_, symbol_) {}\n}\n",
  "sourcePath": "/Users/mwibutsafloribert/Desktop/Learning/Web3/U-NFTMarketplace/src/contracts/ERC721Connector.sol",
  "compiler": {
    "name": "solc",
    "version": "0.8.0+commit.c7dfd78e.Emscripten.clang"
  },
  "schemaVersion": "3.4.16",
  "updatedAt": "2023-10-17T12:00:25.960Z",
  "devdoc": {
    "kind": "dev",
    "methods": {},
    "version": 1
  },
  "userdoc": {
    "kind": "user",
    "methods": {},
    "version": 1
  }
}