{
  "contractName": "ERC721Connector",
  "abi": [
    {
      "inputs": [
        {
          "internalType": "string",
          "name": "name_",
          "type": "string"
        },
        {
          "internalType": "string",
          "name": "symbol_",
          "type": "string"
        }
      ],
      "stateMutability": "nonpayable",
      "type": "constructor"
    },
    {
      "anonymous": false,
      "inputs": [
        {
          "indexed": true,
          "internalType": "address",
          "name": "_owner",
          "type": "address"
        },
        {
          "indexed": true,
          "internalType": "address",
          "name": "_approved",
          "type": "address"
        },
        {
          "indexed": true,
          "internalType": "uint256",
          "name": "_tokenId",
          "type": "uint256"
        }
      ],
      "name": "Approval",
      "type": "event"
    },
    {
      "anonymous": false,
      "inputs": [
        {
          "indexed": true,
          "internalType": "address",
          "name": "_from",
          "type": "address"
        },
        {
          "indexed": true,
          "internalType": "address",
          "name": "_to",
          "type": "address"
        },
        {
          "indexed": true,
          "internalType": "uint256",
          "name": "_tokenId",
          "type": "uint256"
        }
      ],
      "name": "Transfer",
      "type": "event"
    },
    {
      "inputs": [
        {
          "internalType": "address",
          "name": "_to",
          "type": "address"
        },
        {
          "internalType": "uint256",
          "name": "tokenId",
          "type": "uint256"
        }
      ],
      "name": "approve",
      "outputs": [],
      "stateMutability": "nonpayable",
      "type": "function"
    },
    {
      "inputs": [
        {
          "internalType": "address",
          "name": "owner",
          "type": "address"
        }
      ],
      "name": "balanceOf",
      "outputs": [
        {
          "internalType": "uint256",
          "name": "",
          "type": "uint256"
        }
      ],
      "stateMutability": "view",
      "type": "function"
    },
    {
      "inputs": [],
      "name": "name",
      "outputs": [
        {
          "internalType": "string",
          "name": "",
          "type": "string"
        }
      ],
      "stateMutability": "view",
      "type": "function"
    },
    {
      "inputs": [
        {
          "internalType": "uint256",
          "name": "_tokenId",
          "type": "uint256"
        }
      ],
      "name": "ownerOf",
      "outputs": [
        {
          "internalType": "address",
          "name": "",
          "type": "address"
        }
      ],
      "stateMutability": "view",
      "type": "function"
    },
    {
      "inputs": [
        {
          "internalType": "bytes4",
          "name": "interfaceID",
          "type": "bytes4"
        }
      ],
      "name": "supportsInterface",
      "outputs": [
        {
          "internalType": "bool",
          "name": "",
          "type": "bool"
        }
      ],
      "stateMutability": "view",
      "type": "function"
    },
    {
      "inputs": [],
      "name": "symbol",
      "outputs": [
        {
          "internalType": "string",
          "name": "",
          "type": "string"
        }
      ],
      "stateMutability": "view",
      "type": "function"
    },
    {
      "inputs": [
        {
          "internalType": "uint256",
          "name": "index",
          "type": "uint256"
        }
      ],
      "name": "tokenByIndex",
      "outputs": [
        {
          "internalType": "uint256",
          "name": "",
          "type": "uint256"
        }
      ],
      "stateMutability": "view",
      "type": "function"
    },
    {
      "inputs": [
        {
          "internalType": "address",
          "name": "_owner",
          "type": "address"
        },
        {
          "internalType": "uint256",
          "name": "_index",
          "type": "uint256"
        }
      ],
      "name": "tokenOfOwnerByIndex",
      "outputs": [
        {
          "internalType": "uint256",
          "name": "",
          "type": "uint256"
        }
      ],
      "stateMutability": "view",
      "type": "function"
    },
    {
      "inputs": [
        {
          "internalType": "uint256",
          "name": "_tokenId",
          "type": "uint256"
        }
      ],
      "name": "tokenURI",
      "outputs": [
        {
          "internalType": "string",
          "name": "",
          "type": "string"
        }
      ],
      "stateMutability": "view",
      "type": "function"
    },
    {
      "inputs": [],
      "name": "totalSupply",
      "outputs": [
        {
          "internalType": "uint256",
          "name": "",
          "type": "uint256"
        }
      ],
      "stateMutability": "view",
      "type": "function"
    },
    {
      "inputs": [
        {
          "internalType": "address",
          "name": "_from",
          "type": "address"
        },
        {
          "internalType": "address",
          "name": "_to",
          "type": "address"
        },
        {
          "internalType": "uint256",
          "name": "_tokenId",
          "type": "uint256"
        }
      ],
      "name": "transferFrom",
      "outputs": [],
      "stateMutability": "payable",
      "type": "function"
    }
  ],
  "bytecode": "0x60806040523480156200001157600080fd5b5060405162001aaf38038062001aaf83398181016040528101906200003791906200038a565b81816200006a7f01ffc9a7a5cef8baa21ed3c5c0d7e23accb804b619e9333b597f47a0d84076e26200019060201b60201c565b81600190805190602001906200008292919062000268565b5080600290805190602001906200009b92919062000268565b50620001117fc87b56dda752230262935940d907f047a9f86bb5ee6aa33511fc86db33fea6cc7f95d89b41e2f5f391a79ec54e9d87c79d6e777c63e32c28da95b4e9e4a79250ec7f06fdde0383f15d582d1a74511486c9ddf862a882fb7904b3d9fe9b8b8e58a79618186200019060201b60201c565b5050620001887fdd0012ea9f1841c04ff5cb9809bb22ef6f33e0b14df76474331e068938de94597f6352211e6566aa027e75ac9dbf2423197fbd9b82b9d981a3ab367d355866aa1c7fbefbd2e5127dd1d153284c455b5d0ba76989c6c62516eb6a987a20b88edc655018186200019060201b60201c565b5050620005a3565b63ffffffff60e01b817bffffffffffffffffffffffffffffffffffffffffffffffffffffffff19161415620001fc576040517f08c379a0000000000000000000000000000000000000000000000000000000008152600401620001f3906200043f565b60405180910390fd5b6001600080837bffffffffffffffffffffffffffffffffffffffffffffffffffffffff19167bffffffffffffffffffffffffffffffffffffffffffffffffffffffff1916815260200190815260200160002060006101000a81548160ff02191690831515021790555050565b82805462000276906200050f565b90600052602060002090601f0160209004810192826200029a5760008555620002e6565b82601f10620002b557805160ff1916838001178555620002e6565b82800160010185558215620002e6579182015b82811115620002e5578251825591602001919060010190620002c8565b5b509050620002f59190620002f9565b5090565b5b8082111562000314576000816000905550600101620002fa565b5090565b60006200032f620003298462000495565b62000461565b9050828152602081018484840111156200034857600080fd5b62000355848285620004d9565b509392505050565b600082601f8301126200036f57600080fd5b81516200038184826020860162000318565b91505092915050565b600080604083850312156200039e57600080fd5b600083015167ffffffffffffffff811115620003b957600080fd5b620003c7858286016200035d565b925050602083015167ffffffffffffffff811115620003e557600080fd5b620003f3858286016200035d565b9150509250929050565b60006200040c601983620004c8565b91507f496e76616c696420696e746572666163652072657175657374000000000000006000830152602082019050919050565b600060208201905081810360008301526200045a81620003fd565b9050919050565b6000604051905081810181811067ffffffffffffffff821117156200048b576200048a62000574565b5b8060405250919050565b600067ffffffffffffffff821115620004b357620004b262000574565b5b601f19601f8301169050602081019050919050565b600082825260208201905092915050565b60005b83811015620004f9578082015181840152602081019050620004dc565b8381111562000509576000848401525b50505050565b600060028204905060018216806200052857607f821691505b602082108114156200053f576200053e62000545565b5b50919050565b7f4e487b7100000000000000000000000000000000000000000000000000000000600052602260045260246000fd5b7f4e487b7100000000000000000000000000000000000000000000000000000000600052604160045260246000fd5b6114fc80620005b36000396000f3fe60806040526004361061009c5760003560e01c80632f745c59116100645780632f745c59146101795780634f6ccce7146101b65780636352211e146101f357806370a082311461023057806395d89b411461026d578063c87b56dd146102985761009c565b806301ffc9a7146100a157806306fdde03146100de578063095ea7b31461010957806318160ddd1461013257806323b872dd1461015d575b600080fd5b3480156100ad57600080fd5b506100c860048036038101906100c39190610d36565b6102d5565b6040516100d591906110fb565b60405180910390f35b3480156100ea57600080fd5b506100f361033c565b6040516101009190611116565b60405180910390f35b34801561011557600080fd5b50610130600480360381019061012b9190610cfa565b6103ce565b005b34801561013e57600080fd5b5061014761056a565b6040516101549190611278565b60405180910390f35b61017760048036038101906101729190610cab565b610577565b005b34801561018557600080fd5b506101a0600480360381019061019b9190610cfa565b6105d0565b6040516101ad9190611278565b60405180910390f35b3480156101c257600080fd5b506101dd60048036038101906101d89190610d5f565b6106a6565b6040516101ea9190611278565b60405180910390f35b3480156101ff57600080fd5b5061021a60048036038101906102159190610d5f565b61073d565b60405161022791906110e0565b60405180910390f35b34801561023c57600080fd5b5061025760048036038101906102529190610c82565b61077a565b6040516102649190611278565b60405180910390f35b34801561027957600080fd5b50610282610832565b60405161028f9190611116565b60405180910390f35b3480156102a457600080fd5b506102bf60048036038101906102ba9190610d5f565b6108c4565b6040516102cc9190611116565b60405180910390f35b6000806000837bffffffffffffffffffffffffffffffffffffffffffffffffffffffff19167bffffffffffffffffffffffffffffffffffffffffffffffffffffffff1916815260200190815260200160002060009054906101000a900460ff169050919050565b60606001805461034b906113e0565b80601f0160208091040260200160405190810160405280929190818152602001828054610377906113e0565b80156103c45780601f10610399576101008083540402835291602001916103c4565b820191906000526020600020905b8154815290600101906020018083116103a757829003601f168201915b5050505050905090565b60006103d98261073d565b90508073ffffffffffffffffffffffffffffffffffffffff168373ffffffffffffffffffffffffffffffffffffffff16141561044a576040517f08c379a000000000000000000000000000000000000000000000000000000000815260040161044190611158565b60405180910390fd5b8073ffffffffffffffffffffffffffffffffffffffff163373ffffffffffffffffffffffffffffffffffffffff16146104b8576040517f08c379a00000000000000000000000000000000000000000000000000000000081526004016104af90611198565b60405180910390fd5b826005600084815260200190815260200160002060006101000a81548173ffffffffffffffffffffffffffffffffffffffff021916908373ffffffffffffffffffffffffffffffffffffffff160217905550818373ffffffffffffffffffffffffffffffffffffffff168273ffffffffffffffffffffffffffffffffffffffff167f8c5be1e5ebec7d5bd14f71427d1e84f3dd0314c0f7b2291e5b200ac8c7c3b92560405160405180910390a4505050565b6000600680549050905090565b61058133826108cb565b6105c0576040517f08c379a00000000000000000000000000000000000000000000000000000000081526004016105b7906111f8565b60405180910390fd5b6105cb83838361095a565b505050565b60006105db8361077a565b821061061c576040517f08c379a000000000000000000000000000000000000000000000000000000000815260040161061390611138565b60405180910390fd5b600860008473ffffffffffffffffffffffffffffffffffffffff1673ffffffffffffffffffffffffffffffffffffffff1681526020019081526020016000208281548110610693577f4e487b7100000000000000000000000000000000000000000000000000000000600052603260045260246000fd5b9060005260206000200154905092915050565b60006106b061056a565b82106106f1576040517f08c379a00000000000000000000000000000000000000000000000000000000081526004016106e890611238565b60405180910390fd5b6006828154811061072b577f4e487b7100000000000000000000000000000000000000000000000000000000600052603260045260246000fd5b90600052602060002001549050919050565b60006003600083815260200190815260200160002060009054906101000a900473ffffffffffffffffffffffffffffffffffffffff169050919050565b60008073ffffffffffffffffffffffffffffffffffffffff168273ffffffffffffffffffffffffffffffffffffffff1614156107eb576040517f08c379a00000000000000000000000000000000000000000000000000000000081526004016107e2906111b8565b60405180910390fd5b600460008373ffffffffffffffffffffffffffffffffffffffff1673ffffffffffffffffffffffffffffffffffffffff168152602001908152602001600020549050919050565b606060028054610841906113e0565b80601f016020809104026020016040519081016040528092919081815260200182805461086d906113e0565b80156108ba5780601f1061088f576101008083540402835291602001916108ba565b820191906000526020600020905b81548152906001019060200180831161089d57829003601f168201915b5050505050905090565b6060919050565b60006108d682610bc0565b610915576040517f08c379a000000000000000000000000000000000000000000000000000000000815260040161090c90611178565b60405180910390fd5b60006109208361073d565b90508073ffffffffffffffffffffffffffffffffffffffff168473ffffffffffffffffffffffffffffffffffffffff161491505092915050565b61096383610c0a565b6109a2576040517f08c379a000000000000000000000000000000000000000000000000000000000815260040161099990611258565b60405180910390fd5b6109ab82610c0a565b6109ea576040517f08c379a00000000000000000000000000000000000000000000000000000000081526004016109e1906111d8565b60405180910390fd5b8273ffffffffffffffffffffffffffffffffffffffff16610a0a8261073d565b73ffffffffffffffffffffffffffffffffffffffff1614610a60576040517f08c379a0000000000000000000000000000000000000000000000000000000008152600401610a5790611218565b60405180910390fd5b816003600083815260200190815260200160002060006101000a81548173ffffffffffffffffffffffffffffffffffffffff021916908373ffffffffffffffffffffffffffffffffffffffff1602179055506001600460008573ffffffffffffffffffffffffffffffffffffffff1673ffffffffffffffffffffffffffffffffffffffff1681526020019081526020016000206000828254610b029190611305565b925050819055506001600460008473ffffffffffffffffffffffffffffffffffffffff1673ffffffffffffffffffffffffffffffffffffffff1681526020019081526020016000206000828254610b5991906112af565b92505081905550808273ffffffffffffffffffffffffffffffffffffffff168473ffffffffffffffffffffffffffffffffffffffff167fddf252ad1be2c89b69c2b068fc378daa952ba7f163c4a11628f55a4df523b3ef60405160405180910390a4505050565b6000806003600084815260200190815260200160002060009054906101000a900473ffffffffffffffffffffffffffffffffffffffff169050610c0281610c0a565b915050919050565b60008073ffffffffffffffffffffffffffffffffffffffff168273ffffffffffffffffffffffffffffffffffffffff1614159050919050565b600081359050610c5281611481565b92915050565b600081359050610c6781611498565b92915050565b600081359050610c7c816114af565b92915050565b600060208284031215610c9457600080fd5b6000610ca284828501610c43565b91505092915050565b600080600060608486031215610cc057600080fd5b6000610cce86828701610c43565b9350506020610cdf86828701610c43565b9250506040610cf086828701610c6d565b9150509250925092565b60008060408385031215610d0d57600080fd5b6000610d1b85828601610c43565b9250506020610d2c85828601610c6d565b9150509250929050565b600060208284031215610d4857600080fd5b6000610d5684828501610c58565b91505092915050565b600060208284031215610d7157600080fd5b6000610d7f84828501610c6d565b91505092915050565b610d9181611339565b82525050565b610da08161134b565b82525050565b6000610db182611293565b610dbb818561129e565b9350610dcb8185602086016113ad565b610dd481611470565b840191505092915050565b6000610dec60188361129e565b91507f4f776e657220696e646578206f7574206f662072616e676500000000000000006000830152602082019050919050565b6000610e2c60218361129e565b91507f4572726f72202d20617070726f76616c20746f2063757272656e74206f776e6560008301527f72000000000000000000000000000000000000000000000000000000000000006020830152604082019050919050565b6000610e9260148361129e565b91507f546f6b656e20646f6573206e6f742065786973740000000000000000000000006000830152602082019050919050565b6000610ed2602c8361129e565b91507f43757272656e742063616c6c6572206973206e6f7420746865206f776e65722060008301527f6f662074686520746f6b656e00000000000000000000000000000000000000006020830152604082019050919050565b6000610f3860238361129e565b91507f4f776e657220717565727920666f72206e6f6e2d6578697374656e7420746f6b60008301527f656e2e00000000000000000000000000000000000000000000000000000000006020830152604082019050919050565b6000610f9e601b8361129e565b91507f5265636569766572206164647265737320697320696e76616c696400000000006000830152602082019050919050565b6000610fde600c8361129e565b91507f4e6f7420617070726f76656400000000000000000000000000000000000000006000830152602082019050919050565b600061101e60188361129e565b91507f596f7520646f6e2774206f776e207468697320746f6b656e00000000000000006000830152602082019050919050565b600061105e60198361129e565b91507f476c6f62616c20696e646578206f7574206f662072616e6765000000000000006000830152602082019050919050565b600061109e60198361129e565b91507f53656e646572206164647265737320697320696e76616c6964000000000000006000830152602082019050919050565b6110da816113a3565b82525050565b60006020820190506110f56000830184610d88565b92915050565b60006020820190506111106000830184610d97565b92915050565b600060208201905081810360008301526111308184610da6565b905092915050565b6000602082019050818103600083015261115181610ddf565b9050919050565b6000602082019050818103600083015261117181610e1f565b9050919050565b6000602082019050818103600083015261119181610e85565b9050919050565b600060208201905081810360008301526111b181610ec5565b9050919050565b600060208201905081810360008301526111d181610f2b565b9050919050565b600060208201905081810360008301526111f181610f91565b9050919050565b6000602082019050818103600083015261121181610fd1565b9050919050565b6000602082019050818103600083015261123181611011565b9050919050565b6000602082019050818103600083015261125181611051565b9050919050565b6000602082019050818103600083015261127181611091565b9050919050565b600060208201905061128d60008301846110d1565b92915050565b600081519050919050565b600082825260208201905092915050565b60006112ba826113a3565b91506112c5836113a3565b9250827fffffffffffffffffffffffffffffffffffffffffffffffffffffffffffffffff038211156112fa576112f9611412565b5b828201905092915050565b6000611310826113a3565b915061131b836113a3565b92508282101561132e5761132d611412565b5b828203905092915050565b600061134482611383565b9050919050565b60008115159050919050565b60007fffffffff0000000000000000000000000000000000000000000000000000000082169050919050565b600073ffffffffffffffffffffffffffffffffffffffff82169050919050565b6000819050919050565b60005b838110156113cb5780820151818401526020810190506113b0565b838111156113da576000848401525b50505050565b600060028204905060018216806113f857607f821691505b6020821081141561140c5761140b611441565b5b50919050565b7f4e487b7100000000000000000000000000000000000000000000000000000000600052601160045260246000fd5b7f4e487b7100000000000000000000000000000000000000000000000000000000600052602260045260246000fd5b6000601f19601f8301169050919050565b61148a81611339565b811461149557600080fd5b50565b6114a181611357565b81146114ac57600080fd5b50565b6114b8816113a3565b81146114c357600080fd5b5056fea264697066735822122092e7019479f11efb16ea84bf67a3f3fd1b1c510ac8e1f407b6c564b75a14004f64736f6c63430008000033",
  "immutableReferences": {},
  "source": "// SPDX-License-Identifier: MIT\npragma solidity ^0.8.0;\nimport \"./ERC721Metadata.sol\";\nimport \"./ERC721Enumerable.sol\";\n\ncontract ERC721Connector is ERC721Metadata, ERC721Enumerable {\n    constructor(\n        string memory name_,\n        string memory symbol_\n    ) ERC721Metadata(name_, symbol_) {}\n}\n",
  "sourcePath": "/Users/mwibutsafloribert/Desktop/Learning/Web3/U-NFTMarketplace/src/contracts/ERC721Connector.sol",
  "compiler": {
    "name": "solc",
    "version": "0.8.0+commit.c7dfd78e.Emscripten.clang"
  },
  "schemaVersion": "3.4.16",
  "updatedAt": "2023-11-09T08:06:48.599Z",
  "devdoc": {
    "kind": "dev",
    "methods": {
      "supportsInterface(bytes4)": {
        "details": "Interface identification is specified in ERC-165. This function  uses less than 30,000 gas.",
        "params": {
          "interfaceID": "The interface identifier, as specified in ERC-165"
        },
        "returns": {
          "_0": "`true` if the contract implements `interfaceID` and  `interfaceID` is not 0xffffffff, `false` otherwise"
        }
      }
    },
    "version": 1
  },
  "userdoc": {
    "kind": "user",
    "methods": {
      "supportsInterface(bytes4)": {
        "notice": "Query if a contract implements an interface"
      }
    },
    "version": 1
  }
}