{
  "contractName": "KryptoBird",
  "abi": [
    {
      "inputs": [],
      "stateMutability": "nonpayable",
      "type": "constructor"
    },
    {
      "anonymous": false,
      "inputs": [
        {
          "indexed": true,
          "internalType": "address",
          "name": "from",
          "type": "address"
        },
        {
          "indexed": true,
          "internalType": "address",
          "name": "to",
          "type": "address"
        },
        {
          "indexed": true,
          "internalType": "uint256",
          "name": "tokenId",
          "type": "uint256"
        }
      ],
      "name": "Transfer",
      "type": "event"
    },
    {
      "inputs": [
        {
          "internalType": "address",
          "name": "owner",
          "type": "address"
        }
      ],
      "name": "balanceOf",
      "outputs": [
        {
          "internalType": "uint256",
          "name": "",
          "type": "uint256"
        }
      ],
      "stateMutability": "view",
      "type": "function",
      "constant": true
    },
    {
      "inputs": [
        {
          "internalType": "uint256",
          "name": "",
          "type": "uint256"
        }
      ],
      "name": "kryptoBirdz",
      "outputs": [
        {
          "internalType": "string",
          "name": "",
          "type": "string"
        }
      ],
      "stateMutability": "view",
      "type": "function",
      "constant": true
    },
    {
      "inputs": [],
      "name": "name",
      "outputs": [
        {
          "internalType": "string",
          "name": "",
          "type": "string"
        }
      ],
      "stateMutability": "view",
      "type": "function",
      "constant": true
    },
    {
      "inputs": [
        {
          "internalType": "uint256",
          "name": "_tokenId",
          "type": "uint256"
        }
      ],
      "name": "ownerOf",
      "outputs": [
        {
          "internalType": "address",
          "name": "",
          "type": "address"
        }
      ],
      "stateMutability": "view",
      "type": "function",
      "constant": true
    },
    {
      "inputs": [],
      "name": "symbol",
      "outputs": [
        {
          "internalType": "string",
          "name": "",
          "type": "string"
        }
      ],
      "stateMutability": "view",
      "type": "function",
      "constant": true
    },
    {
      "inputs": [
        {
          "internalType": "uint256",
          "name": "index",
          "type": "uint256"
        }
      ],
      "name": "tokenByIndex",
      "outputs": [
        {
          "internalType": "uint256",
          "name": "",
          "type": "uint256"
        }
      ],
      "stateMutability": "view",
      "type": "function",
      "constant": true
    },
    {
      "inputs": [
        {
          "internalType": "address",
          "name": "_owner",
          "type": "address"
        },
        {
          "internalType": "uint256",
          "name": "_index",
          "type": "uint256"
        }
      ],
      "name": "tokenOfOwnerByIndex",
      "outputs": [
        {
          "internalType": "uint256",
          "name": "",
          "type": "uint256"
        }
      ],
      "stateMutability": "view",
      "type": "function",
      "constant": true
    },
    {
      "inputs": [],
      "name": "totalSupply",
      "outputs": [
        {
          "internalType": "uint256",
          "name": "",
          "type": "uint256"
        }
      ],
      "stateMutability": "view",
      "type": "function",
      "constant": true
    },
    {
      "inputs": [
        {
          "internalType": "address",
          "name": "_from",
          "type": "address"
        },
        {
          "internalType": "address",
          "name": "_to",
          "type": "address"
        },
        {
          "internalType": "uint256",
          "name": "_tokenId",
          "type": "uint256"
        }
      ],
      "name": "transferFrom",
      "outputs": [],
      "stateMutability": "payable",
      "type": "function",
      "payable": true
    },
    {
      "inputs": [
        {
          "internalType": "string",
          "name": "_kryptoBird",
          "type": "string"
        }
      ],
      "name": "mint",
      "outputs": [],
      "stateMutability": "nonpayable",
      "type": "function"
    }
  ],
  "bytecode": "0x60806040523480156200001157600080fd5b506040518060400160405280600a81526020017f4b727970746f42697264000000000000000000000000000000000000000000008152506040518060400160405280600681526020017f4b424952445a00000000000000000000000000000000000000000000000000008152508181816000908051906020019062000098929190620000bc565b508060019080519060200190620000b1929190620000bc565b5050505050620001d1565b828054620000ca906200016c565b90600052602060002090601f016020900481019282620000ee57600085556200013a565b82601f106200010957805160ff19168380011785556200013a565b828001600101855582156200013a579182015b82811115620001395782518255916020019190600101906200011c565b5b5090506200014991906200014d565b5090565b5b80821115620001685760008160009055506001016200014e565b5090565b600060028204905060018216806200018557607f821691505b602082108114156200019c576200019b620001a2565b5b50919050565b7f4e487b7100000000000000000000000000000000000000000000000000000000600052602260045260246000fd5b61174b80620001e16000396000f3fe6080604052600436106100915760003560e01c80636352211e116100595780636352211e1461018257806370a08231146101bf57806393ab6e56146101fc57806395d89b4114610239578063d85d3d271461026457610091565b806306fdde031461009657806318160ddd146100c157806323b872dd146100ec5780632f745c59146101085780634f6ccce714610145575b600080fd5b3480156100a257600080fd5b506100ab61028d565b6040516100b8919061132a565b60405180910390f35b3480156100cd57600080fd5b506100d661031f565b6040516100e3919061146c565b60405180910390f35b61010660048036038101906101019190610eef565b61032c565b005b34801561011457600080fd5b5061012f600480360381019061012a9190610f3e565b61033c565b60405161013c919061146c565b60405180910390f35b34801561015157600080fd5b5061016c60048036038101906101679190610fbb565b610412565b604051610179919061146c565b60405180910390f35b34801561018e57600080fd5b506101a960048036038101906101a49190610fbb565b6104a9565b6040516101b6919061130f565b60405180910390f35b3480156101cb57600080fd5b506101e660048036038101906101e19190610ec6565b6104e6565b6040516101f3919061146c565b60405180910390f35b34801561020857600080fd5b50610223600480360381019061021e9190610fbb565b61059e565b604051610230919061132a565b60405180910390f35b34801561024557600080fd5b5061024e61064a565b60405161025b919061132a565b60405180910390f35b34801561027057600080fd5b5061028b60048036038101906102869190610f7a565b6106dc565b005b60606000805461029c90611617565b80601f01602080910402602001604051908101604052809291908181526020018280546102c890611617565b80156103155780601f106102ea57610100808354040283529160200191610315565b820191906000526020600020905b8154815290600101906020018083116102f857829003601f168201915b5050505050905090565b6000600480549050905090565b6103378383836107df565b505050565b6000610347836104e6565b8210610388576040517f08c379a000000000000000000000000000000000000000000000000000000000815260040161037f9061134c565b60405180910390fd5b600660008473ffffffffffffffffffffffffffffffffffffffff1673ffffffffffffffffffffffffffffffffffffffff16815260200190815260200160002082815481106103ff577f4e487b7100000000000000000000000000000000000000000000000000000000600052603260045260246000fd5b9060005260206000200154905092915050565b600061041c61031f565b821061045d576040517f08c379a00000000000000000000000000000000000000000000000000000000081526004016104549061142c565b60405180910390fd5b60048281548110610497577f4e487b7100000000000000000000000000000000000000000000000000000000600052603260045260246000fd5b90600052602060002001549050919050565b60006002600083815260200190815260200160002060009054906101000a900473ffffffffffffffffffffffffffffffffffffffff169050919050565b60008073ffffffffffffffffffffffffffffffffffffffff168273ffffffffffffffffffffffffffffffffffffffff161415610557576040517f08c379a000000000000000000000000000000000000000000000000000000000815260040161054e906113ac565b60405180910390fd5b600360008373ffffffffffffffffffffffffffffffffffffffff1673ffffffffffffffffffffffffffffffffffffffff168152602001908152602001600020549050919050565b600881815481106105ae57600080fd5b9060005260206000200160009150905080546105c990611617565b80601f01602080910402602001604051908101604052809291908181526020018280546105f590611617565b80156106425780601f1061061757610100808354040283529160200191610642565b820191906000526020600020905b81548152906001019060200180831161062557829003601f168201915b505050505081565b60606001805461065990611617565b80601f016020809104026020016040519081016040528092919081815260200182805461068590611617565b80156106d25780601f106106a7576101008083540402835291602001916106d2565b820191906000526020600020905b8154815290600101906020018083116106b557829003601f168201915b5050505050905090565b6009816040516106ec91906112f8565b908152602001604051809103902060009054906101000a900460ff1615610748576040517f08c379a000000000000000000000000000000000000000000000000000000000815260040161073f9061140c565b60405180910390fd5b600881908060018154018082558091505060019003906000526020600020016000909190919091509080519060200190610783929190610d91565b50600060016008805490506107989190611565565b90506107a43382610a45565b60016009836040516107b691906112f8565b908152602001604051809103902060006101000a81548160ff0219169083151502179055505050565b6107e883610a66565b610827576040517f08c379a000000000000000000000000000000000000000000000000000000000815260040161081e9061144c565b60405180910390fd5b61083082610a66565b61086f576040517f08c379a0000000000000000000000000000000000000000000000000000000008152600401610866906113cc565b60405180910390fd5b8273ffffffffffffffffffffffffffffffffffffffff1661088f826104a9565b73ffffffffffffffffffffffffffffffffffffffff16146108e5576040517f08c379a00000000000000000000000000000000000000000000000000000000081526004016108dc906113ec565b60405180910390fd5b816002600083815260200190815260200160002060006101000a81548173ffffffffffffffffffffffffffffffffffffffff021916908373ffffffffffffffffffffffffffffffffffffffff1602179055506001600360008573ffffffffffffffffffffffffffffffffffffffff1673ffffffffffffffffffffffffffffffffffffffff16815260200190815260200160002060008282546109879190611565565b925050819055506001600360008473ffffffffffffffffffffffffffffffffffffffff1673ffffffffffffffffffffffffffffffffffffffff16815260200190815260200160002060008282546109de919061150f565b92505081905550808273ffffffffffffffffffffffffffffffffffffffff168473ffffffffffffffffffffffffffffffffffffffff167fddf252ad1be2c89b69c2b068fc378daa952ba7f163c4a11628f55a4df523b3ef60405160405180910390a4505050565b610a4f8282610a9f565b610a5881610c3a565b610a628282610c83565b5050565b60008073ffffffffffffffffffffffffffffffffffffffff168273ffffffffffffffffffffffffffffffffffffffff1614159050919050565b81610aa981610a66565b610ae8576040517f08c379a0000000000000000000000000000000000000000000000000000000008152600401610adf9061138c565b60405180910390fd5b610af182610d47565b15610b31576040517f08c379a0000000000000000000000000000000000000000000000000000000008152600401610b289061136c565b60405180910390fd5b826002600084815260200190815260200160002060006101000a81548173ffffffffffffffffffffffffffffffffffffffff021916908373ffffffffffffffffffffffffffffffffffffffff1602179055506001600360008573ffffffffffffffffffffffffffffffffffffffff1673ffffffffffffffffffffffffffffffffffffffff1681526020019081526020016000206000828254610bd3919061150f565b92505081905550818373ffffffffffffffffffffffffffffffffffffffff163073ffffffffffffffffffffffffffffffffffffffff167fddf252ad1be2c89b69c2b068fc378daa952ba7f163c4a11628f55a4df523b3ef60405160405180910390a4505050565b6004805490506005600083815260200190815260200160002081905550600481908060018154018082558091505060019003906000526020600020016000909190919091505550565b600660008373ffffffffffffffffffffffffffffffffffffffff1673ffffffffffffffffffffffffffffffffffffffff168152602001908152602001600020805490506007600083815260200190815260200160002081905550600660008373ffffffffffffffffffffffffffffffffffffffff1673ffffffffffffffffffffffffffffffffffffffff1681526020019081526020016000208190806001815401808255809150506001900390600052602060002001600090919091909150555050565b6000806002600084815260200190815260200160002060009054906101000a900473ffffffffffffffffffffffffffffffffffffffff169050610d8981610a66565b915050919050565b828054610d9d90611617565b90600052602060002090601f016020900481019282610dbf5760008555610e06565b82601f10610dd857805160ff1916838001178555610e06565b82800160010185558215610e06579182015b82811115610e05578251825591602001919060010190610dea565b5b509050610e139190610e17565b5090565b5b80821115610e30576000816000905550600101610e18565b5090565b6000610e47610e42846114b8565b611487565b905082815260208101848484011115610e5f57600080fd5b610e6a8482856115d5565b509392505050565b600081359050610e81816116e7565b92915050565b600082601f830112610e9857600080fd5b8135610ea8848260208601610e34565b91505092915050565b600081359050610ec0816116fe565b92915050565b600060208284031215610ed857600080fd5b6000610ee684828501610e72565b91505092915050565b600080600060608486031215610f0457600080fd5b6000610f1286828701610e72565b9350506020610f2386828701610e72565b9250506040610f3486828701610eb1565b9150509250925092565b60008060408385031215610f5157600080fd5b6000610f5f85828601610e72565b9250506020610f7085828601610eb1565b9150509250929050565b600060208284031215610f8c57600080fd5b600082013567ffffffffffffffff811115610fa657600080fd5b610fb284828501610e87565b91505092915050565b600060208284031215610fcd57600080fd5b6000610fdb84828501610eb1565b91505092915050565b610fed81611599565b82525050565b6000610ffe826114e8565b61100881856114f3565b93506110188185602086016115e4565b611021816116d6565b840191505092915050565b6000611037826114e8565b6110418185611504565b93506110518185602086016115e4565b80840191505092915050565b600061106a6018836114f3565b91507f4f776e657220696e646578206f7574206f662072616e676500000000000000006000830152602082019050919050565b60006110aa601c836114f3565b91507f4552433732313a20746f6b656e20616c7265616479206d696e746564000000006000830152602082019050919050565b60006110ea601c836114f3565b91507f43616e206e6f74206d696e7420746f207a65726f2061646472657373000000006000830152602082019050919050565b600061112a6023836114f3565b91507f4f776e657220717565727920666f72206e6f6e2d6578697374656e7420746f6b60008301527f656e2e00000000000000000000000000000000000000000000000000000000006020830152604082019050919050565b6000611190601b836114f3565b91507f5265636569766572206164647265737320697320696e76616c696400000000006000830152602082019050919050565b60006111d06018836114f3565b91507f596f7520646f6e2774206f776e207468697320746f6b656e00000000000000006000830152602082019050919050565b60006112106021836114f3565b91507f4572726f72202d204b727970746f4269726420616c726561647920657869737460008301527f73000000000000000000000000000000000000000000000000000000000000006020830152604082019050919050565b60006112766019836114f3565b91507f476c6f62616c20696e646578206f7574206f662072616e6765000000000000006000830152602082019050919050565b60006112b66019836114f3565b91507f53656e646572206164647265737320697320696e76616c6964000000000000006000830152602082019050919050565b6112f2816115cb565b82525050565b6000611304828461102c565b915081905092915050565b60006020820190506113246000830184610fe4565b92915050565b600060208201905081810360008301526113448184610ff3565b905092915050565b600060208201905081810360008301526113658161105d565b9050919050565b600060208201905081810360008301526113858161109d565b9050919050565b600060208201905081810360008301526113a5816110dd565b9050919050565b600060208201905081810360008301526113c58161111d565b9050919050565b600060208201905081810360008301526113e581611183565b9050919050565b60006020820190508181036000830152611405816111c3565b9050919050565b6000602082019050818103600083015261142581611203565b9050919050565b6000602082019050818103600083015261144581611269565b9050919050565b60006020820190508181036000830152611465816112a9565b9050919050565b600060208201905061148160008301846112e9565b92915050565b6000604051905081810181811067ffffffffffffffff821117156114ae576114ad6116a7565b5b8060405250919050565b600067ffffffffffffffff8211156114d3576114d26116a7565b5b601f19601f8301169050602081019050919050565b600081519050919050565b600082825260208201905092915050565b600081905092915050565b600061151a826115cb565b9150611525836115cb565b9250827fffffffffffffffffffffffffffffffffffffffffffffffffffffffffffffffff0382111561155a57611559611649565b5b828201905092915050565b6000611570826115cb565b915061157b836115cb565b92508282101561158e5761158d611649565b5b828203905092915050565b60006115a4826115ab565b9050919050565b600073ffffffffffffffffffffffffffffffffffffffff82169050919050565b6000819050919050565b82818337600083830152505050565b60005b838110156116025780820151818401526020810190506115e7565b83811115611611576000848401525b50505050565b6000600282049050600182168061162f57607f821691505b6020821081141561164357611642611678565b5b50919050565b7f4e487b7100000000000000000000000000000000000000000000000000000000600052601160045260246000fd5b7f4e487b7100000000000000000000000000000000000000000000000000000000600052602260045260246000fd5b7f4e487b7100000000000000000000000000000000000000000000000000000000600052604160045260246000fd5b6000601f19601f8301169050919050565b6116f081611599565b81146116fb57600080fd5b50565b611707816115cb565b811461171257600080fd5b5056fea2646970667358221220fafdf8f731628f7290d32fed3c15a553316082b88323a35b7f8844a43bca47b264736f6c63430008000033",
  "immutableReferences": {},
  "source": "// SPDX-License-Identifier: MIT\npragma solidity ^0.8.0;\nimport \"./ERC721Connector.sol\";\n\ncontract KryptoBird is ERC721Connector {\n    string[] public kryptoBirdz;\n\n    mapping(string => bool) _kryptoBirdzExists;\n\n    function mint(string memory _kryptoBird) public {\n        require(\n            !_kryptoBirdzExists[_kryptoBird],\n            \"Error - KryptoBird already exists\"\n        );\n        kryptoBirdz.push(_kryptoBird);\n        uint _id = kryptoBirdz.length - 1;\n        _mint(msg.sender, _id);\n        _kryptoBirdzExists[_kryptoBird] = true;\n    }\n\n    constructor() ERC721Connector(\"KryptoBird\", \"KBIRDZ\") {}\n}\n",
  "sourcePath": "/Users/mwibutsafloribert/Desktop/Learning/Web3/U-NFTMarketplace/src/contracts/KryptoBirdz.sol",
  "compiler": {
    "name": "solc",
    "version": "0.8.0+commit.c7dfd78e.Emscripten.clang"
  },
  "schemaVersion": "3.4.16",
  "updatedAt": "2023-10-17T12:04:10.905Z",
  "networkType": "ethereum",
  "devdoc": {
    "kind": "dev",
    "methods": {},
    "version": 1
  },
  "userdoc": {
    "kind": "user",
    "methods": {},
    "version": 1
  }
}