{
  "contractName": "KryptoBird",
  "abi": [
    {
      "inputs": [],
      "stateMutability": "nonpayable",
      "type": "constructor"
    },
    {
      "anonymous": false,
      "inputs": [
        {
          "indexed": true,
          "internalType": "address",
          "name": "_owner",
          "type": "address"
        },
        {
          "indexed": true,
          "internalType": "address",
          "name": "_approved",
          "type": "address"
        },
        {
          "indexed": true,
          "internalType": "uint256",
          "name": "_tokenId",
          "type": "uint256"
        }
      ],
      "name": "Approval",
      "type": "event"
    },
    {
      "anonymous": false,
      "inputs": [
        {
          "indexed": true,
          "internalType": "address",
          "name": "_from",
          "type": "address"
        },
        {
          "indexed": true,
          "internalType": "address",
          "name": "_to",
          "type": "address"
        },
        {
          "indexed": true,
          "internalType": "uint256",
          "name": "_tokenId",
          "type": "uint256"
        }
      ],
      "name": "Transfer",
      "type": "event"
    },
    {
      "inputs": [
        {
          "internalType": "address",
          "name": "_to",
          "type": "address"
        },
        {
          "internalType": "uint256",
          "name": "tokenId",
          "type": "uint256"
        }
      ],
      "name": "approve",
      "outputs": [],
      "stateMutability": "nonpayable",
      "type": "function"
    },
    {
      "inputs": [
        {
          "internalType": "address",
          "name": "owner",
          "type": "address"
        }
      ],
      "name": "balanceOf",
      "outputs": [
        {
          "internalType": "uint256",
          "name": "",
          "type": "uint256"
        }
      ],
      "stateMutability": "view",
      "type": "function"
    },
    {
      "inputs": [
        {
          "internalType": "uint256",
          "name": "",
          "type": "uint256"
        }
      ],
      "name": "kryptoBirdz",
      "outputs": [
        {
          "internalType": "string",
          "name": "",
          "type": "string"
        }
      ],
      "stateMutability": "view",
      "type": "function"
    },
    {
      "inputs": [],
      "name": "name",
      "outputs": [
        {
          "internalType": "string",
          "name": "",
          "type": "string"
        }
      ],
      "stateMutability": "view",
      "type": "function"
    },
    {
      "inputs": [
        {
          "internalType": "uint256",
          "name": "_tokenId",
          "type": "uint256"
        }
      ],
      "name": "ownerOf",
      "outputs": [
        {
          "internalType": "address",
          "name": "",
          "type": "address"
        }
      ],
      "stateMutability": "view",
      "type": "function"
    },
    {
      "inputs": [
        {
          "internalType": "bytes4",
          "name": "interfaceID",
          "type": "bytes4"
        }
      ],
      "name": "supportsInterface",
      "outputs": [
        {
          "internalType": "bool",
          "name": "",
          "type": "bool"
        }
      ],
      "stateMutability": "view",
      "type": "function"
    },
    {
      "inputs": [],
      "name": "symbol",
      "outputs": [
        {
          "internalType": "string",
          "name": "",
          "type": "string"
        }
      ],
      "stateMutability": "view",
      "type": "function"
    },
    {
      "inputs": [
        {
          "internalType": "uint256",
          "name": "index",
          "type": "uint256"
        }
      ],
      "name": "tokenByIndex",
      "outputs": [
        {
          "internalType": "uint256",
          "name": "",
          "type": "uint256"
        }
      ],
      "stateMutability": "view",
      "type": "function"
    },
    {
      "inputs": [
        {
          "internalType": "address",
          "name": "_owner",
          "type": "address"
        },
        {
          "internalType": "uint256",
          "name": "_index",
          "type": "uint256"
        }
      ],
      "name": "tokenOfOwnerByIndex",
      "outputs": [
        {
          "internalType": "uint256",
          "name": "",
          "type": "uint256"
        }
      ],
      "stateMutability": "view",
      "type": "function"
    },
    {
      "inputs": [
        {
          "internalType": "uint256",
          "name": "_tokenId",
          "type": "uint256"
        }
      ],
      "name": "tokenURI",
      "outputs": [
        {
          "internalType": "string",
          "name": "",
          "type": "string"
        }
      ],
      "stateMutability": "view",
      "type": "function"
    },
    {
      "inputs": [],
      "name": "totalSupply",
      "outputs": [
        {
          "internalType": "uint256",
          "name": "",
          "type": "uint256"
        }
      ],
      "stateMutability": "view",
      "type": "function"
    },
    {
      "inputs": [
        {
          "internalType": "address",
          "name": "_from",
          "type": "address"
        },
        {
          "internalType": "address",
          "name": "_to",
          "type": "address"
        },
        {
          "internalType": "uint256",
          "name": "_tokenId",
          "type": "uint256"
        }
      ],
      "name": "transferFrom",
      "outputs": [],
      "stateMutability": "payable",
      "type": "function"
    },
    {
      "inputs": [
        {
          "internalType": "string",
          "name": "_kryptoBird",
          "type": "string"
        }
      ],
      "name": "mint",
      "outputs": [],
      "stateMutability": "nonpayable",
      "type": "function"
    }
  ],
  "bytecode": "0x60806040523480156200001157600080fd5b506040518060400160405280600a81526020017f4b727970746f42697264000000000000000000000000000000000000000000008152506040518060400160405280600681526020017f4b424952445a00000000000000000000000000000000000000000000000000008152508181620000b17f01ffc9a7a5cef8baa21ed3c5c0d7e23accb804b619e9333b597f47a0d84076e2620001d760201b60201c565b8160019080519060200190620000c9929190620002af565b508060029080519060200190620000e2929190620002af565b50620001587fc87b56dda752230262935940d907f047a9f86bb5ee6aa33511fc86db33fea6cc7f95d89b41e2f5f391a79ec54e9d87c79d6e777c63e32c28da95b4e9e4a79250ec7f06fdde0383f15d582d1a74511486c9ddf862a882fb7904b3d9fe9b8b8e58a7961818620001d760201b60201c565b5050620001cf7fdd0012ea9f1841c04ff5cb9809bb22ef6f33e0b14df76474331e068938de94597f6352211e6566aa027e75ac9dbf2423197fbd9b82b9d981a3ab367d355866aa1c7fbefbd2e5127dd1d153284c455b5d0ba76989c6c62516eb6a987a20b88edc65501818620001d760201b60201c565b505062000439565b63ffffffff60e01b817bffffffffffffffffffffffffffffffffffffffffffffffffffffffff1916141562000243576040517f08c379a00000000000000000000000000000000000000000000000000000000081526004016200023a90620003a1565b60405180910390fd5b6001600080837bffffffffffffffffffffffffffffffffffffffffffffffffffffffff19167bffffffffffffffffffffffffffffffffffffffffffffffffffffffff1916815260200190815260200160002060006101000a81548160ff02191690831515021790555050565b828054620002bd90620003d4565b90600052602060002090601f016020900481019282620002e157600085556200032d565b82601f10620002fc57805160ff19168380011785556200032d565b828001600101855582156200032d579182015b828111156200032c5782518255916020019190600101906200030f565b5b5090506200033c919062000340565b5090565b5b808211156200035b57600081600090555060010162000341565b5090565b60006200036e601983620003c3565b91507f496e76616c696420696e746572666163652072657175657374000000000000006000830152602082019050919050565b60006020820190508181036000830152620003bc816200035f565b9050919050565b600082825260208201905092915050565b60006002820490506001821680620003ed57607f821691505b602082108114156200040457620004036200040a565b5b50919050565b7f4e487b7100000000000000000000000000000000000000000000000000000000600052602260045260246000fd5b611d8480620004496000396000f3fe6080604052600436106100c25760003560e01c80634f6ccce71161007f57806393ab6e561161005957806393ab6e561461029357806395d89b41146102d0578063c87b56dd146102fb578063d85d3d2714610338576100c2565b80634f6ccce7146101dc5780636352211e1461021957806370a0823114610256576100c2565b806301ffc9a7146100c757806306fdde0314610104578063095ea7b31461012f57806318160ddd1461015857806323b872dd146101835780632f745c591461019f575b600080fd5b3480156100d357600080fd5b506100ee60048036038101906100e99190611345565b610361565b6040516100fb9190611879565b60405180910390f35b34801561011057600080fd5b506101196103c8565b6040516101269190611894565b60405180910390f35b34801561013b57600080fd5b5061015660048036038101906101519190611309565b61045a565b005b34801561016457600080fd5b5061016d6105f6565b60405161017a9190611a56565b60405180910390f35b61019d600480360381019061019891906112ba565b610603565b005b3480156101ab57600080fd5b506101c660048036038101906101c19190611309565b61065c565b6040516101d39190611a56565b60405180910390f35b3480156101e857600080fd5b5061020360048036038101906101fe91906113af565b610732565b6040516102109190611a56565b60405180910390f35b34801561022557600080fd5b50610240600480360381019061023b91906113af565b6107c9565b60405161024d919061185e565b60405180910390f35b34801561026257600080fd5b5061027d60048036038101906102789190611291565b610806565b60405161028a9190611a56565b60405180910390f35b34801561029f57600080fd5b506102ba60048036038101906102b591906113af565b6108be565b6040516102c79190611894565b60405180910390f35b3480156102dc57600080fd5b506102e561096a565b6040516102f29190611894565b60405180910390f35b34801561030757600080fd5b50610322600480360381019061031d91906113af565b6109fc565b60405161032f9190611894565b60405180910390f35b34801561034457600080fd5b5061035f600480360381019061035a919061136e565b610a03565b005b6000806000837bffffffffffffffffffffffffffffffffffffffffffffffffffffffff19167bffffffffffffffffffffffffffffffffffffffffffffffffffffffff1916815260200190815260200160002060009054906101000a900460ff169050919050565b6060600180546103d790611c39565b80601f016020809104026020016040519081016040528092919081815260200182805461040390611c39565b80156104505780601f1061042557610100808354040283529160200191610450565b820191906000526020600020905b81548152906001019060200180831161043357829003601f168201915b5050505050905090565b6000610465826107c9565b90508073ffffffffffffffffffffffffffffffffffffffff168373ffffffffffffffffffffffffffffffffffffffff1614156104d6576040517f08c379a00000000000000000000000000000000000000000000000000000000081526004016104cd906118d6565b60405180910390fd5b8073ffffffffffffffffffffffffffffffffffffffff163373ffffffffffffffffffffffffffffffffffffffff1614610544576040517f08c379a000000000000000000000000000000000000000000000000000000000815260040161053b90611956565b60405180910390fd5b826005600084815260200190815260200160002060006101000a81548173ffffffffffffffffffffffffffffffffffffffff021916908373ffffffffffffffffffffffffffffffffffffffff160217905550818373ffffffffffffffffffffffffffffffffffffffff168273ffffffffffffffffffffffffffffffffffffffff167f8c5be1e5ebec7d5bd14f71427d1e84f3dd0314c0f7b2291e5b200ac8c7c3b92560405160405180910390a4505050565b6000600680549050905090565b61060d3382610b06565b61064c576040517f08c379a0000000000000000000000000000000000000000000000000000000008152600401610643906119b6565b60405180910390fd5b610657838383610b95565b505050565b600061066783610806565b82106106a8576040517f08c379a000000000000000000000000000000000000000000000000000000000815260040161069f906118b6565b60405180910390fd5b600860008473ffffffffffffffffffffffffffffffffffffffff1673ffffffffffffffffffffffffffffffffffffffff168152602001908152602001600020828154811061071f577f4e487b7100000000000000000000000000000000000000000000000000000000600052603260045260246000fd5b9060005260206000200154905092915050565b600061073c6105f6565b821061077d576040517f08c379a000000000000000000000000000000000000000000000000000000000815260040161077490611a16565b60405180910390fd5b600682815481106107b7577f4e487b7100000000000000000000000000000000000000000000000000000000600052603260045260246000fd5b90600052602060002001549050919050565b60006003600083815260200190815260200160002060009054906101000a900473ffffffffffffffffffffffffffffffffffffffff169050919050565b60008073ffffffffffffffffffffffffffffffffffffffff168273ffffffffffffffffffffffffffffffffffffffff161415610877576040517f08c379a000000000000000000000000000000000000000000000000000000000815260040161086e90611976565b60405180910390fd5b600460008373ffffffffffffffffffffffffffffffffffffffff1673ffffffffffffffffffffffffffffffffffffffff168152602001908152602001600020549050919050565b600a81815481106108ce57600080fd5b9060005260206000200160009150905080546108e990611c39565b80601f016020809104026020016040519081016040528092919081815260200182805461091590611c39565b80156109625780601f1061093757610100808354040283529160200191610962565b820191906000526020600020905b81548152906001019060200180831161094557829003601f168201915b505050505081565b60606002805461097990611c39565b80601f01602080910402602001604051908101604052809291908181526020018280546109a590611c39565b80156109f25780601f106109c7576101008083540402835291602001916109f2565b820191906000526020600020905b8154815290600101906020018083116109d557829003601f168201915b5050505050905090565b6060919050565b600b81604051610a139190611847565b908152602001604051809103902060009054906101000a900460ff1615610a6f576040517f08c379a0000000000000000000000000000000000000000000000000000000008152600401610a66906119f6565b60405180910390fd5b600a81908060018154018082558091505060019003906000526020600020016000909190919091509080519060200190610aaa929190611147565b5060006001600a80549050610abf9190611b4f565b9050610acb3382610dfb565b6001600b83604051610add9190611847565b908152602001604051809103902060006101000a81548160ff0219169083151502179055505050565b6000610b1182610e1c565b610b50576040517f08c379a0000000000000000000000000000000000000000000000000000000008152600401610b4790611936565b60405180910390fd5b6000610b5b836107c9565b90508073ffffffffffffffffffffffffffffffffffffffff168473ffffffffffffffffffffffffffffffffffffffff161491505092915050565b610b9e83610e66565b610bdd576040517f08c379a0000000000000000000000000000000000000000000000000000000008152600401610bd490611a36565b60405180910390fd5b610be682610e66565b610c25576040517f08c379a0000000000000000000000000000000000000000000000000000000008152600401610c1c90611996565b60405180910390fd5b8273ffffffffffffffffffffffffffffffffffffffff16610c45826107c9565b73ffffffffffffffffffffffffffffffffffffffff1614610c9b576040517f08c379a0000000000000000000000000000000000000000000000000000000008152600401610c92906119d6565b60405180910390fd5b816003600083815260200190815260200160002060006101000a81548173ffffffffffffffffffffffffffffffffffffffff021916908373ffffffffffffffffffffffffffffffffffffffff1602179055506001600460008573ffffffffffffffffffffffffffffffffffffffff1673ffffffffffffffffffffffffffffffffffffffff1681526020019081526020016000206000828254610d3d9190611b4f565b925050819055506001600460008473ffffffffffffffffffffffffffffffffffffffff1673ffffffffffffffffffffffffffffffffffffffff1681526020019081526020016000206000828254610d949190611af9565b92505081905550808273ffffffffffffffffffffffffffffffffffffffff168473ffffffffffffffffffffffffffffffffffffffff167fddf252ad1be2c89b69c2b068fc378daa952ba7f163c4a11628f55a4df523b3ef60405160405180910390a4505050565b610e058282610e9f565b610e0e8161103a565b610e188282611083565b5050565b6000806003600084815260200190815260200160002060009054906101000a900473ffffffffffffffffffffffffffffffffffffffff169050610e5e81610e66565b915050919050565b60008073ffffffffffffffffffffffffffffffffffffffff168273ffffffffffffffffffffffffffffffffffffffff1614159050919050565b81610ea981610e66565b610ee8576040517f08c379a0000000000000000000000000000000000000000000000000000000008152600401610edf90611916565b60405180910390fd5b610ef182610e1c565b15610f31576040517f08c379a0000000000000000000000000000000000000000000000000000000008152600401610f28906118f6565b60405180910390fd5b826003600084815260200190815260200160002060006101000a81548173ffffffffffffffffffffffffffffffffffffffff021916908373ffffffffffffffffffffffffffffffffffffffff1602179055506001600460008573ffffffffffffffffffffffffffffffffffffffff1673ffffffffffffffffffffffffffffffffffffffff1681526020019081526020016000206000828254610fd39190611af9565b92505081905550818373ffffffffffffffffffffffffffffffffffffffff163073ffffffffffffffffffffffffffffffffffffffff167fddf252ad1be2c89b69c2b068fc378daa952ba7f163c4a11628f55a4df523b3ef60405160405180910390a4505050565b6006805490506007600083815260200190815260200160002081905550600681908060018154018082558091505060019003906000526020600020016000909190919091505550565b600860008373ffffffffffffffffffffffffffffffffffffffff1673ffffffffffffffffffffffffffffffffffffffff168152602001908152602001600020805490506009600083815260200190815260200160002081905550600860008373ffffffffffffffffffffffffffffffffffffffff1673ffffffffffffffffffffffffffffffffffffffff1681526020019081526020016000208190806001815401808255809150506001900390600052602060002001600090919091909150555050565b82805461115390611c39565b90600052602060002090601f01602090048101928261117557600085556111bc565b82601f1061118e57805160ff19168380011785556111bc565b828001600101855582156111bc579182015b828111156111bb5782518255916020019190600101906111a0565b5b5090506111c991906111cd565b5090565b5b808211156111e65760008160009055506001016111ce565b5090565b60006111fd6111f884611aa2565b611a71565b90508281526020810184848401111561121557600080fd5b611220848285611bf7565b509392505050565b60008135905061123781611d09565b92915050565b60008135905061124c81611d20565b92915050565b600082601f83011261126357600080fd5b81356112738482602086016111ea565b91505092915050565b60008135905061128b81611d37565b92915050565b6000602082840312156112a357600080fd5b60006112b184828501611228565b91505092915050565b6000806000606084860312156112cf57600080fd5b60006112dd86828701611228565b93505060206112ee86828701611228565b92505060406112ff8682870161127c565b9150509250925092565b6000806040838503121561131c57600080fd5b600061132a85828601611228565b925050602061133b8582860161127c565b9150509250929050565b60006020828403121561135757600080fd5b60006113658482850161123d565b91505092915050565b60006020828403121561138057600080fd5b600082013567ffffffffffffffff81111561139a57600080fd5b6113a684828501611252565b91505092915050565b6000602082840312156113c157600080fd5b60006113cf8482850161127c565b91505092915050565b6113e181611b83565b82525050565b6113f081611b95565b82525050565b600061140182611ad2565b61140b8185611add565b935061141b818560208601611c06565b61142481611cf8565b840191505092915050565b600061143a82611ad2565b6114448185611aee565b9350611454818560208601611c06565b80840191505092915050565b600061146d601883611add565b91507f4f776e657220696e646578206f7574206f662072616e676500000000000000006000830152602082019050919050565b60006114ad602183611add565b91507f4572726f72202d20617070726f76616c20746f2063757272656e74206f776e6560008301527f72000000000000000000000000000000000000000000000000000000000000006020830152604082019050919050565b6000611513601c83611add565b91507f4552433732313a20746f6b656e20616c7265616479206d696e746564000000006000830152602082019050919050565b6000611553601c83611add565b91507f43616e206e6f74206d696e7420746f207a65726f2061646472657373000000006000830152602082019050919050565b6000611593601483611add565b91507f546f6b656e20646f6573206e6f742065786973740000000000000000000000006000830152602082019050919050565b60006115d3602c83611add565b91507f43757272656e742063616c6c6572206973206e6f7420746865206f776e65722060008301527f6f662074686520746f6b656e00000000000000000000000000000000000000006020830152604082019050919050565b6000611639602383611add565b91507f4f776e657220717565727920666f72206e6f6e2d6578697374656e7420746f6b60008301527f656e2e00000000000000000000000000000000000000000000000000000000006020830152604082019050919050565b600061169f601b83611add565b91507f5265636569766572206164647265737320697320696e76616c696400000000006000830152602082019050919050565b60006116df600c83611add565b91507f4e6f7420617070726f76656400000000000000000000000000000000000000006000830152602082019050919050565b600061171f601883611add565b91507f596f7520646f6e2774206f776e207468697320746f6b656e00000000000000006000830152602082019050919050565b600061175f602183611add565b91507f4572726f72202d204b727970746f4269726420616c726561647920657869737460008301527f73000000000000000000000000000000000000000000000000000000000000006020830152604082019050919050565b60006117c5601983611add565b91507f476c6f62616c20696e646578206f7574206f662072616e6765000000000000006000830152602082019050919050565b6000611805601983611add565b91507f53656e646572206164647265737320697320696e76616c6964000000000000006000830152602082019050919050565b61184181611bed565b82525050565b6000611853828461142f565b915081905092915050565b600060208201905061187360008301846113d8565b92915050565b600060208201905061188e60008301846113e7565b92915050565b600060208201905081810360008301526118ae81846113f6565b905092915050565b600060208201905081810360008301526118cf81611460565b9050919050565b600060208201905081810360008301526118ef816114a0565b9050919050565b6000602082019050818103600083015261190f81611506565b9050919050565b6000602082019050818103600083015261192f81611546565b9050919050565b6000602082019050818103600083015261194f81611586565b9050919050565b6000602082019050818103600083015261196f816115c6565b9050919050565b6000602082019050818103600083015261198f8161162c565b9050919050565b600060208201905081810360008301526119af81611692565b9050919050565b600060208201905081810360008301526119cf816116d2565b9050919050565b600060208201905081810360008301526119ef81611712565b9050919050565b60006020820190508181036000830152611a0f81611752565b9050919050565b60006020820190508181036000830152611a2f816117b8565b9050919050565b60006020820190508181036000830152611a4f816117f8565b9050919050565b6000602082019050611a6b6000830184611838565b92915050565b6000604051905081810181811067ffffffffffffffff82111715611a9857611a97611cc9565b5b8060405250919050565b600067ffffffffffffffff821115611abd57611abc611cc9565b5b601f19601f8301169050602081019050919050565b600081519050919050565b600082825260208201905092915050565b600081905092915050565b6000611b0482611bed565b9150611b0f83611bed565b9250827fffffffffffffffffffffffffffffffffffffffffffffffffffffffffffffffff03821115611b4457611b43611c6b565b5b828201905092915050565b6000611b5a82611bed565b9150611b6583611bed565b925082821015611b7857611b77611c6b565b5b828203905092915050565b6000611b8e82611bcd565b9050919050565b60008115159050919050565b60007fffffffff0000000000000000000000000000000000000000000000000000000082169050919050565b600073ffffffffffffffffffffffffffffffffffffffff82169050919050565b6000819050919050565b82818337600083830152505050565b60005b83811015611c24578082015181840152602081019050611c09565b83811115611c33576000848401525b50505050565b60006002820490506001821680611c5157607f821691505b60208210811415611c6557611c64611c9a565b5b50919050565b7f4e487b7100000000000000000000000000000000000000000000000000000000600052601160045260246000fd5b7f4e487b7100000000000000000000000000000000000000000000000000000000600052602260045260246000fd5b7f4e487b7100000000000000000000000000000000000000000000000000000000600052604160045260246000fd5b6000601f19601f8301169050919050565b611d1281611b83565b8114611d1d57600080fd5b50565b611d2981611ba1565b8114611d3457600080fd5b50565b611d4081611bed565b8114611d4b57600080fd5b5056fea2646970667358221220a3ebc3782b971e9ef5fa76eff4b53162af48a3920b6bf90c80c1cc84dba6b22864736f6c63430008000033",
  "immutableReferences": {},
  "source": "// SPDX-License-Identifier: MIT\npragma solidity ^0.8.0;\nimport \"./ERC721Connector.sol\";\n\ncontract KryptoBird is ERC721Connector {\n    string[] public kryptoBirdz;\n\n    mapping(string => bool) _kryptoBirdzExists;\n\n    function mint(string memory _kryptoBird) public {\n        require(\n            !_kryptoBirdzExists[_kryptoBird],\n            \"Error - KryptoBird already exists\"\n        );\n        kryptoBirdz.push(_kryptoBird);\n        uint _id = kryptoBirdz.length - 1;\n        _mint(msg.sender, _id);\n        _kryptoBirdzExists[_kryptoBird] = true;\n    }\n\n    constructor() ERC721Connector(\"KryptoBird\", \"KBIRDZ\") {}\n}\n",
  "sourcePath": "/Users/mwibutsafloribert/Desktop/Learning/Web3/U-NFTMarketplace/src/contracts/KryptoBirdz.sol",
  "compiler": {
    "name": "solc",
    "version": "0.8.0+commit.c7dfd78e.Emscripten.clang"
  },
  "schemaVersion": "3.4.16",
  "updatedAt": "2023-10-26T13:48:33.449Z",
  "devdoc": {
    "kind": "dev",
    "methods": {
      "supportsInterface(bytes4)": {
        "details": "Interface identification is specified in ERC-165. This function  uses less than 30,000 gas.",
        "params": {
          "interfaceID": "The interface identifier, as specified in ERC-165"
        },
        "returns": {
          "_0": "`true` if the contract implements `interfaceID` and  `interfaceID` is not 0xffffffff, `false` otherwise"
        }
      }
    },
    "version": 1
  },
  "userdoc": {
    "kind": "user",
    "methods": {
      "supportsInterface(bytes4)": {
        "notice": "Query if a contract implements an interface"
      }
    },
    "version": 1
  }
}